{
  "contractName": "ADN_Token",
  "abi": [
    {
      "inputs": [],
      "payable": false,
      "stateMutability": "nonpayable",
      "type": "constructor"
    },
    {
      "anonymous": false,
      "inputs": [
        {
          "indexed": false,
          "internalType": "address",
          "name": "",
          "type": "address"
        }
      ],
      "name": "AddressCheck",
      "type": "event"
    },
    {
      "anonymous": false,
      "inputs": [
        {
          "indexed": true,
          "internalType": "address",
          "name": "_owner",
          "type": "address"
        },
        {
          "indexed": true,
          "internalType": "address",
          "name": "_spender",
          "type": "address"
        },
        {
          "indexed": false,
          "internalType": "uint256",
          "name": "_value",
          "type": "uint256"
        }
      ],
      "name": "Approval",
      "type": "event"
    },
    {
      "anonymous": false,
      "inputs": [
        {
          "indexed": false,
          "internalType": "string",
          "name": "",
          "type": "string"
        }
      ],
      "name": "Message4",
      "type": "event"
    },
    {
      "anonymous": false,
      "inputs": [
        {
          "indexed": true,
          "internalType": "address",
          "name": "_from",
          "type": "address"
        },
        {
          "indexed": true,
          "internalType": "address",
          "name": "_to",
          "type": "address"
        },
        {
          "indexed": false,
          "internalType": "uint256",
          "name": "_value",
          "type": "uint256"
        }
      ],
      "name": "Transfer",
      "type": "event"
    },
    {
      "constant": true,
      "inputs": [
        {
          "internalType": "address",
          "name": "",
          "type": "address"
        },
        {
          "internalType": "address",
          "name": "",
          "type": "address"
        }
      ],
      "name": "allowance",
      "outputs": [
        {
          "internalType": "uint256",
          "name": "",
          "type": "uint256"
        }
      ],
      "payable": false,
      "stateMutability": "view",
      "type": "function"
    },
    {
      "constant": true,
      "inputs": [
        {
          "internalType": "address",
          "name": "",
          "type": "address"
        }
      ],
      "name": "balanceOf",
      "outputs": [
        {
          "internalType": "uint256",
          "name": "",
          "type": "uint256"
        }
      ],
      "payable": false,
      "stateMutability": "view",
      "type": "function"
    },
    {
      "constant": true,
      "inputs": [],
      "name": "birthPlace",
      "outputs": [
        {
          "internalType": "string",
          "name": "",
          "type": "string"
        }
      ],
      "payable": false,
      "stateMutability": "view",
      "type": "function"
    },
    {
      "constant": true,
      "inputs": [],
      "name": "decimals",
      "outputs": [
        {
          "internalType": "uint8",
          "name": "",
          "type": "uint8"
        }
      ],
      "payable": false,
      "stateMutability": "view",
      "type": "function"
    },
    {
      "constant": true,
      "inputs": [],
      "name": "name",
      "outputs": [
        {
          "internalType": "string",
          "name": "",
          "type": "string"
        }
      ],
      "payable": false,
      "stateMutability": "view",
      "type": "function"
    },
    {
      "constant": true,
      "inputs": [],
      "name": "rate",
      "outputs": [
        {
          "internalType": "uint256",
          "name": "",
          "type": "uint256"
        }
      ],
      "payable": false,
      "stateMutability": "view",
      "type": "function"
    },
    {
      "constant": false,
      "inputs": [
        {
          "internalType": "address",
          "name": "_deployerAddress",
          "type": "address"
        }
      ],
      "name": "setDeployerAddress",
      "outputs": [],
      "payable": false,
      "stateMutability": "nonpayable",
      "type": "function"
    },
    {
      "constant": false,
      "inputs": [
        {
          "internalType": "address",
          "name": "_ethSwapAddress",
          "type": "address"
        }
      ],
      "name": "setEthSwapAddress",
      "outputs": [],
      "payable": false,
      "stateMutability": "nonpayable",
      "type": "function"
    },
    {
      "constant": false,
      "inputs": [
        {
          "internalType": "address",
          "name": "_flashLoanAddress",
          "type": "address"
        }
      ],
      "name": "setFlashLoanAddress",
      "outputs": [],
      "payable": false,
      "stateMutability": "nonpayable",
      "type": "function"
    },
    {
      "constant": true,
      "inputs": [],
      "name": "symbol",
      "outputs": [
        {
          "internalType": "string",
          "name": "",
          "type": "string"
        }
      ],
      "payable": false,
      "stateMutability": "view",
      "type": "function"
    },
    {
      "constant": true,
      "inputs": [],
      "name": "totalSupply",
      "outputs": [
        {
          "internalType": "uint256",
          "name": "",
          "type": "uint256"
        }
      ],
      "payable": false,
      "stateMutability": "view",
      "type": "function"
    },
    {
      "constant": true,
      "inputs": [],
      "name": "getName",
      "outputs": [
        {
          "internalType": "string",
          "name": "",
          "type": "string"
        }
      ],
      "payable": false,
      "stateMutability": "view",
      "type": "function"
    },
    {
      "constant": true,
      "inputs": [],
      "name": "getBirthPlace",
      "outputs": [
        {
          "internalType": "string",
          "name": "",
          "type": "string"
        }
      ],
      "payable": false,
      "stateMutability": "view",
      "type": "function"
    },
    {
      "constant": true,
      "inputs": [],
      "name": "getRate",
      "outputs": [
        {
          "internalType": "uint256",
          "name": "",
          "type": "uint256"
        }
      ],
      "payable": false,
      "stateMutability": "view",
      "type": "function"
    },
    {
      "constant": true,
      "inputs": [],
      "name": "getSymbol",
      "outputs": [
        {
          "internalType": "string",
          "name": "",
          "type": "string"
        }
      ],
      "payable": false,
      "stateMutability": "view",
      "type": "function"
    },
    {
      "constant": false,
      "inputs": [
        {
          "internalType": "uint256",
          "name": "_value",
          "type": "uint256"
        },
        {
          "internalType": "address",
          "name": "_from",
          "type": "address"
        },
        {
          "internalType": "address",
          "name": "_to",
          "type": "address"
        }
      ],
      "name": "deposit",
      "outputs": [
        {
          "internalType": "bool",
          "name": "success",
          "type": "bool"
        }
      ],
      "payable": false,
      "stateMutability": "nonpayable",
      "type": "function"
    },
    {
      "constant": false,
      "inputs": [
        {
          "internalType": "address",
          "name": "_to",
          "type": "address"
        },
        {
          "internalType": "uint256",
          "name": "_value",
          "type": "uint256"
        }
      ],
      "name": "transfer",
      "outputs": [
        {
          "internalType": "bool",
          "name": "success",
          "type": "bool"
        }
      ],
      "payable": false,
      "stateMutability": "nonpayable",
      "type": "function"
    },
    {
      "constant": false,
      "inputs": [
        {
          "internalType": "address",
          "name": "_spender",
          "type": "address"
        },
        {
          "internalType": "uint256",
          "name": "_value",
          "type": "uint256"
        }
      ],
      "name": "approve",
      "outputs": [
        {
          "internalType": "bool",
          "name": "success",
          "type": "bool"
        }
      ],
      "payable": false,
      "stateMutability": "nonpayable",
      "type": "function"
    },
    {
      "constant": false,
      "inputs": [
        {
          "internalType": "address",
          "name": "_from",
          "type": "address"
        },
        {
          "internalType": "address",
          "name": "_to",
          "type": "address"
        },
        {
          "internalType": "uint256",
          "name": "_value",
          "type": "uint256"
        }
      ],
      "name": "transferFrom",
      "outputs": [
        {
          "internalType": "bool",
          "name": "success",
          "type": "bool"
        }
      ],
      "payable": false,
      "stateMutability": "nonpayable",
      "type": "function"
    }
  ],
  "bytecode": "0x60806040526040518060400160405280600c81526020017f416c696365204e656c736f6e0000000000000000000000000000000000000000815250600390805190602001906200005192919062000178565b506040518060400160405280600f81526020017f4e6577204f726c65616e732c204c410000000000000000000000000000000000815250600490805190602001906200009f92919062000178565b506040518060400160405280600381526020017f41444e000000000000000000000000000000000000000000000000000000000081525060059080519060200190620000ed92919062000178565b506a01a784379d99db420000006006556012600760006101000a81548160ff021916908360ff16021790555060076008553480156200012b57600080fd5b50600654600960003373ffffffffffffffffffffffffffffffffffffffff1673ffffffffffffffffffffffffffffffffffffffff1681526020019081526020016000208190555062000227565b828054600181600116156101000203166002900490600052602060002090601f016020900481019282601f10620001bb57805160ff1916838001178555620001ec565b82800160010185558215620001ec579182015b82811115620001eb578251825591602001919060010190620001ce565b5b509050620001fb9190620001ff565b5090565b6200022491905b808211156200022057600081600090555060010162000206565b5090565b90565b61156880620002376000396000f3fe608060405234801561001057600080fd5b50600436106101215760003560e01c8063679aefce116100ad5780639d99c3e9116100715780639d99c3e914610641578063a4e0928a14610685578063a7224275146106c9578063a9059cbb1461074c578063dd62ed3e146107b257610121565b8063679aefce1461048157806370a082311461049f57806383ed3338146104f757806392152f181461057a57806395d89b41146105be57610121565b806318160ddd116100f457806318160ddd1461031557806323b872dd146103335780632c4e722e146103b95780632e2d2984146103d7578063313ce5671461045d57610121565b806306fdde0314610126578063095ea7b3146101a9578063150704011461020f57806317d7de7c14610292575b600080fd5b61012e61082a565b6040518080602001828103825283818151815260200191508051906020019080838360005b8381101561016e578082015181840152602081019050610153565b50505050905090810190601f16801561019b5780820380516001836020036101000a031916815260200191505b509250505060405180910390f35b6101f5600480360360408110156101bf57600080fd5b81019080803573ffffffffffffffffffffffffffffffffffffffff169060200190929190803590602001909291905050506108c8565b604051808215151515815260200191505060405180910390f35b6102176109ba565b6040518080602001828103825283818151815260200191508051906020019080838360005b8381101561025757808201518184015260208101905061023c565b50505050905090810190601f1680156102845780820380516001836020036101000a031916815260200191505b509250505060405180910390f35b61029a610a5c565b6040518080602001828103825283818151815260200191508051906020019080838360005b838110156102da5780820151818401526020810190506102bf565b50505050905090810190601f1680156103075780820380516001836020036101000a031916815260200191505b509250505060405180910390f35b61031d610afe565b6040518082815260200191505060405180910390f35b61039f6004803603606081101561034957600080fd5b81019080803573ffffffffffffffffffffffffffffffffffffffff169060200190929190803573ffffffffffffffffffffffffffffffffffffffff16906020019092919080359060200190929190505050610b04565b604051808215151515815260200191505060405180910390f35b6103c1610d6f565b6040518082815260200191505060405180910390f35b610443600480360360608110156103ed57600080fd5b8101908080359060200190929190803573ffffffffffffffffffffffffffffffffffffffff169060200190929190803573ffffffffffffffffffffffffffffffffffffffff169060200190929190505050610d75565b604051808215151515815260200191505060405180910390f35b610465610f0f565b604051808260ff1660ff16815260200191505060405180910390f35b610489610f22565b6040518082815260200191505060405180910390f35b6104e1600480360360208110156104b557600080fd5b81019080803573ffffffffffffffffffffffffffffffffffffffff169060200190929190505050610f2c565b6040518082815260200191505060405180910390f35b6104ff610f44565b6040518080602001828103825283818151815260200191508051906020019080838360005b8381101561053f578082015181840152602081019050610524565b50505050905090810190601f16801561056c5780820380516001836020036101000a031916815260200191505b509250505060405180910390f35b6105bc6004803603602081101561059057600080fd5b81019080803573ffffffffffffffffffffffffffffffffffffffff169060200190929190505050610fe6565b005b6105c661102a565b6040518080602001828103825283818151815260200191508051906020019080838360005b838110156106065780820151818401526020810190506105eb565b50505050905090810190601f1680156106335780820380516001836020036101000a031916815260200191505b509250505060405180910390f35b6106836004803603602081101561065757600080fd5b81019080803573ffffffffffffffffffffffffffffffffffffffff1690602001909291905050506110c8565b005b6106c76004803603602081101561069b57600080fd5b81019080803573ffffffffffffffffffffffffffffffffffffffff16906020019092919050505061110c565b005b6106d161114f565b6040518080602001828103825283818151815260200191508051906020019080838360005b838110156107115780820151818401526020810190506106f6565b50505050905090810190601f16801561073e5780820380516001836020036101000a031916815260200191505b509250505060405180910390f35b6107986004803603604081101561076257600080fd5b81019080803573ffffffffffffffffffffffffffffffffffffffff169060200190929190803590602001909291905050506111ed565b604051808215151515815260200191505060405180910390f35b610814600480360360408110156107c857600080fd5b81019080803573ffffffffffffffffffffffffffffffffffffffff169060200190929190803573ffffffffffffffffffffffffffffffffffffffff16906020019092919050505061149b565b6040518082815260200191505060405180910390f35b60038054600181600116156101000203166002900480601f0160208091040260200160405190810160405280929190818152602001828054600181600116156101000203166002900480156108c05780601f10610895576101008083540402835291602001916108c0565b820191906000526020600020905b8154815290600101906020018083116108a357829003601f168201915b505050505081565b600081600a60003373ffffffffffffffffffffffffffffffffffffffff1673ffffffffffffffffffffffffffffffffffffffff16815260200190815260200160002060008573ffffffffffffffffffffffffffffffffffffffff1673ffffffffffffffffffffffffffffffffffffffff168152602001908152602001600020819055508273ffffffffffffffffffffffffffffffffffffffff163373ffffffffffffffffffffffffffffffffffffffff167f8c5be1e5ebec7d5bd14f71427d1e84f3dd0314c0f7b2291e5b200ac8c7c3b925846040518082815260200191505060405180910390a36001905092915050565b606060058054600181600116156101000203166002900480601f016020809104026020016040519081016040528092919081815260200182805460018160011615610100020316600290048015610a525780601f10610a2757610100808354040283529160200191610a52565b820191906000526020600020905b815481529060010190602001808311610a3557829003601f168201915b5050505050905090565b606060038054600181600116156101000203166002900480601f016020809104026020016040519081016040528092919081815260200182805460018160011615610100020316600290048015610af45780601f10610ac957610100808354040283529160200191610af4565b820191906000526020600020905b815481529060010190602001808311610ad757829003601f168201915b5050505050905090565b60065481565b6000600960008573ffffffffffffffffffffffffffffffffffffffff1673ffffffffffffffffffffffffffffffffffffffff16815260200190815260200160002054821115610b5257600080fd5b600a60008573ffffffffffffffffffffffffffffffffffffffff1673ffffffffffffffffffffffffffffffffffffffff16815260200190815260200160002060003373ffffffffffffffffffffffffffffffffffffffff1673ffffffffffffffffffffffffffffffffffffffff16815260200190815260200160002054821115610bdb57600080fd5b81600960008673ffffffffffffffffffffffffffffffffffffffff1673ffffffffffffffffffffffffffffffffffffffff1681526020019081526020016000206000828254039250508190555081600960008573ffffffffffffffffffffffffffffffffffffffff1673ffffffffffffffffffffffffffffffffffffffff1681526020019081526020016000206000828254019250508190555081600a60008673ffffffffffffffffffffffffffffffffffffffff1673ffffffffffffffffffffffffffffffffffffffff16815260200190815260200160002060003373ffffffffffffffffffffffffffffffffffffffff1673ffffffffffffffffffffffffffffffffffffffff168152602001908152602001600020600082825403925050819055508273ffffffffffffffffffffffffffffffffffffffff168473ffffffffffffffffffffffffffffffffffffffff167fddf252ad1be2c89b69c2b068fc378daa952ba7f163c4a11628f55a4df523b3ef846040518082815260200191505060405180910390a3600190509392505050565b60085481565b6000336000809054906101000a900473ffffffffffffffffffffffffffffffffffffffff1673ffffffffffffffffffffffffffffffffffffffff168173ffffffffffffffffffffffffffffffffffffffff1614610e1d576040517f08c379a00000000000000000000000000000000000000000000000000000000081526004018080602001828103825260358152602001806114ff6035913960400191505060405180910390fd5b600960008573ffffffffffffffffffffffffffffffffffffffff1673ffffffffffffffffffffffffffffffffffffffff16815260200190815260200160002054851115610e6957600080fd5b84600960008673ffffffffffffffffffffffffffffffffffffffff1673ffffffffffffffffffffffffffffffffffffffff1681526020019081526020016000206000828254039250508190555084600960008573ffffffffffffffffffffffffffffffffffffffff1673ffffffffffffffffffffffffffffffffffffffff1681526020019081526020016000206000828254019250508190555060019150509392505050565b600760009054906101000a900460ff1681565b6000600854905090565b60096020528060005260406000206000915090505481565b606060048054600181600116156101000203166002900480601f016020809104026020016040519081016040528092919081815260200182805460018160011615610100020316600290048015610fdc5780601f10610fb157610100808354040283529160200191610fdc565b820191906000526020600020905b815481529060010190602001808311610fbf57829003601f168201915b5050505050905090565b80600260006101000a81548173ffffffffffffffffffffffffffffffffffffffff021916908373ffffffffffffffffffffffffffffffffffffffff16021790555050565b60058054600181600116156101000203166002900480601f0160208091040260200160405190810160405280929190818152602001828054600181600116156101000203166002900480156110c05780601f10611095576101008083540402835291602001916110c0565b820191906000526020600020905b8154815290600101906020018083116110a357829003601f168201915b505050505081565b80600160006101000a81548173ffffffffffffffffffffffffffffffffffffffff021916908373ffffffffffffffffffffffffffffffffffffffff16021790555050565b806000806101000a81548173ffffffffffffffffffffffffffffffffffffffff021916908373ffffffffffffffffffffffffffffffffffffffff16021790555050565b60048054600181600116156101000203166002900480601f0160208091040260200160405190810160405280929190818152602001828054600181600116156101000203166002900480156111e55780601f106111ba576101008083540402835291602001916111e5565b820191906000526020600020905b8154815290600101906020018083116111c857829003601f168201915b505050505081565b6000336000809054906101000a900473ffffffffffffffffffffffffffffffffffffffff1673ffffffffffffffffffffffffffffffffffffffff168173ffffffffffffffffffffffffffffffffffffffff1614806112985750600160009054906101000a900473ffffffffffffffffffffffffffffffffffffffff1673ffffffffffffffffffffffffffffffffffffffff168173ffffffffffffffffffffffffffffffffffffffff16145b806112f05750600260009054906101000a900473ffffffffffffffffffffffffffffffffffffffff1673ffffffffffffffffffffffffffffffffffffffff168173ffffffffffffffffffffffffffffffffffffffff16145b611345576040517f08c379a000000000000000000000000000000000000000000000000000000000815260040180806020018281038252603e8152602001806114c1603e913960400191505060405180910390fd5b82600960003373ffffffffffffffffffffffffffffffffffffffff1673ffffffffffffffffffffffffffffffffffffffff16815260200190815260200160002054101561139157600080fd5b82600960003373ffffffffffffffffffffffffffffffffffffffff1673ffffffffffffffffffffffffffffffffffffffff1681526020019081526020016000206000828254039250508190555082600960008673ffffffffffffffffffffffffffffffffffffffff1673ffffffffffffffffffffffffffffffffffffffff168152602001908152602001600020600082825401925050819055508373ffffffffffffffffffffffffffffffffffffffff163373ffffffffffffffffffffffffffffffffffffffff167fddf252ad1be2c89b69c2b068fc378daa952ba7f163c4a11628f55a4df523b3ef856040518082815260200191505060405180910390a3600191505092915050565b600a60205281600052604060002060205280600052604060002060009150915050548156fe46756e6374696f6e2063616e206f6e6c792062652063616c6c656420627920466c6173684c6f616e2c20457468737761702c206f72204465706c6f79657246756e6374696f6e2063616e206f6e6c792062652063616c6c65642062792074686520466c6173684c6f616e20636f6e7472616374a265627a7a723158207458d9914640d3972882ee426605812b777775b0684ea42e87f4ff9527398a9264736f6c63430005100032",
  "source": "pragma solidity ^0.5.0;\n\nimport '../Parent Contracts/Token_Interface.sol';\nimport '../Parent Contracts/BaseTokenContract.sol';\n\ncontract ADN_Token is BaseTokenContract, TokenInterface {\n    string  public name = \"Alice Nelson\";\n    string  public birthPlace = \"New Orleans, LA\";\n    \n    string  public symbol = \"ADN\";\n    // 2 million in wei.\n    uint256 public totalSupply = 2000000000000000000000000;\n    uint8 public decimals = 18;\n    uint public rate = 7;\n\n    event AddressCheck(address);\n    event Message4(string);\n\n    event Transfer(\n        address indexed _from,\n        address indexed _to,\n        uint256 _value\n    );\n\n    event Approval(\n        address indexed _owner,\n        address indexed _spender,\n        uint256 _value\n    );\n\n    mapping(address => uint256) public balanceOf;\n    mapping(address => mapping(address => uint256)) public allowance;\n\n    constructor() public {\n        balanceOf[msg.sender] = totalSupply;\n    }\n\n    function getName() public view returns (string memory) {\n        return name;\n    }\n    function getBirthPlace() public view returns (string memory) {\n        return birthPlace;\n    }\n\n    function getRate() public view returns (uint) {\n        return rate;\n    }\n\n    function getSymbol() public view returns (string memory) {\n        return symbol;\n    }\n\n    // flashLoanAddress is inherited from BaseTokenContract\n    function deposit(uint256 _value, address _from, address _to) public\n     onlyFlashLoanContract(msg.sender) returns (bool success)\n    {\n        require(_value <= balanceOf[_from]);\n        balanceOf[_from] -= _value;\n        balanceOf[_to] += _value;\n        return true;\n    }\n\n    function transfer(address _to, uint256 _value) public \n     fromFlashLoanEthSwapDeployer(msg.sender) returns (bool success) \n     {   \n        require(balanceOf[msg.sender] >= _value); \n        balanceOf[msg.sender] -= _value;\n        balanceOf[_to] += _value;\n        emit Transfer(msg.sender, _to, _value);\n        return true;\n    }\n\n    function approve(address _spender, uint256 _value) public returns (bool success) {\n        allowance[msg.sender][_spender] = _value;\n        emit Approval(msg.sender, _spender, _value);\n        return true;\n    }\n\n    // Send tokens to another account to get ETH back.\n    function transferFrom(address _from, address _to, uint256 _value) public returns (bool success) {\n        // Confirm account owns enough token's (located in the mapping)\n        require(_value <= balanceOf[_from]);\n        // Confirm the nested mapping = UserAccount:EthSwap:value has enough.\n        require(_value <= allowance[_from][msg.sender]);\n\n        // Deduct tokens from one account and add to another in the BalanceOf mapping\n        balanceOf[_from] -= _value;\n        balanceOf[_to] += _value;\n\n        // Reduce account's allowance balance.\n        allowance[_from][msg.sender] -= _value;\n        emit Transfer(_from, _to, _value);\n        return true;\n    }\n}\n\n\n",
  "sourcePath": "/Users/Nelson/Desktop/DEX-web-app/src/contracts/ERC-20 Tokens/ADN_Token.sol",
  "compiler": {
    "name": "solc",
    "version": "0.5.16+commit.9c3226ce.Emscripten.clang"
  },
  "schemaVersion": "3.4.14",
  "updatedAt": "2023-07-24T18:30:53.473Z",
  "networkType": "ethereum",
  "devdoc": {
    "methods": {}
  },
  "userdoc": {
    "methods": {}
  }
}