{
  "contractName": "BaseTokenContract",
  "abi": [
    {
      "inputs": [],
      "payable": false,
      "stateMutability": "nonpayable",
      "type": "constructor"
    },
    {
      "constant": true,
      "inputs": [],
      "name": "flashLoanAddress",
      "outputs": [
        {
          "internalType": "address",
          "name": "",
          "type": "address"
        }
      ],
      "payable": false,
      "stateMutability": "view",
      "type": "function"
    },
    {
      "constant": false,
      "inputs": [
        {
          "internalType": "address",
          "name": "_flashLoanAddress",
          "type": "address"
        }
      ],
      "name": "setFlashLoanAddress",
      "outputs": [],
      "payable": false,
      "stateMutability": "nonpayable",
      "type": "function"
    }
  ],
  "bytecode": "0x608060405234801561001057600080fd5b50610166806100206000396000f3fe608060405234801561001057600080fd5b50600436106100365760003560e01c80634169467d1461003b578063a4e0928a14610085575b600080fd5b6100436100c9565b604051808273ffffffffffffffffffffffffffffffffffffffff1673ffffffffffffffffffffffffffffffffffffffff16815260200191505060405180910390f35b6100c76004803603602081101561009b57600080fd5b81019080803573ffffffffffffffffffffffffffffffffffffffff1690602001909291905050506100ee565b005b6000809054906101000a900473ffffffffffffffffffffffffffffffffffffffff1681565b806000806101000a81548173ffffffffffffffffffffffffffffffffffffffff021916908373ffffffffffffffffffffffffffffffffffffffff1602179055505056fea265627a7a72315820a6547b9dd68f992c8c26b661250b49dd030c1276da5304edf7c52a07e9a75b3064736f6c63430005100032",
  "source": "pragma solidity ^0.5.0;\n\n/* \n    There is a lot of similarity. Can probably put transfer(),\n    approve(), transferFrom() implementations into here and just \n    inherit.\n*/\n\ncontract BaseTokenContract {\n    \n    // Child inherits this\n    address public flashLoanAddress;\n\n    constructor() public {\n    }\n\n    // IS INHERITED BY child, so each child has its own variable\n    // of this that is getting set.\n    function setFlashLoanAddress(address _flashLoanAddress) public \n    {\n        flashLoanAddress = _flashLoanAddress;\n    }\n\n    modifier onlyFlashLoanContract(address originalSender, address flashLoan) {\n        require(originalSender == flashLoan, \"Function can only be called by the FlashLoan contract\");\n        _;\n    }\n    \n}\n",
  "sourcePath": "/Users/Nelson/Desktop/DEX-web-app/src/contracts/Parent Contracts/BaseTokenContract.sol",
  "compiler": {
    "name": "solc",
    "version": "0.5.16+commit.9c3226ce.Emscripten.clang"
  },
  "schemaVersion": "3.4.14",
  "updatedAt": "2023-07-05T02:32:17.586Z",
  "networkType": "ethereum",
  "devdoc": {
    "methods": {}
  },
  "userdoc": {
    "methods": {}
  }
}