{
  "contractName": "BaseTokenContract",
  "abi": [
    {
      "inputs": [],
      "payable": false,
      "stateMutability": "nonpayable",
      "type": "constructor"
    },
    {
      "constant": false,
      "inputs": [
        {
          "internalType": "address",
          "name": "_flashLoanAddress",
          "type": "address"
        }
      ],
      "name": "setFlashLoanAddress",
      "outputs": [],
      "payable": false,
      "stateMutability": "nonpayable",
      "type": "function"
    },
    {
      "constant": false,
      "inputs": [
        {
          "internalType": "address",
          "name": "_ethSwapAddress",
          "type": "address"
        }
      ],
      "name": "setEthSwapAddress",
      "outputs": [],
      "payable": false,
      "stateMutability": "nonpayable",
      "type": "function"
    },
    {
      "constant": false,
      "inputs": [
        {
          "internalType": "address",
          "name": "_deployerAddress",
          "type": "address"
        }
      ],
      "name": "setDeployerAddress",
      "outputs": [],
      "payable": false,
      "stateMutability": "nonpayable",
      "type": "function"
    }
  ],
  "bytecode": "0x608060405234801561001057600080fd5b50610212806100206000396000f3fe608060405234801561001057600080fd5b50600436106100415760003560e01c806392152f18146100465780639d99c3e91461008a578063a4e0928a146100ce575b600080fd5b6100886004803603602081101561005c57600080fd5b81019080803573ffffffffffffffffffffffffffffffffffffffff169060200190929190505050610112565b005b6100cc600480360360208110156100a057600080fd5b81019080803573ffffffffffffffffffffffffffffffffffffffff169060200190929190505050610156565b005b610110600480360360208110156100e457600080fd5b81019080803573ffffffffffffffffffffffffffffffffffffffff16906020019092919050505061019a565b005b80600260006101000a81548173ffffffffffffffffffffffffffffffffffffffff021916908373ffffffffffffffffffffffffffffffffffffffff16021790555050565b80600160006101000a81548173ffffffffffffffffffffffffffffffffffffffff021916908373ffffffffffffffffffffffffffffffffffffffff16021790555050565b806000806101000a81548173ffffffffffffffffffffffffffffffffffffffff021916908373ffffffffffffffffffffffffffffffffffffffff1602179055505056fea265627a7a72315820240d2093548a524807c0e32f0a319c82ac0ead7db3db442dd398145f4180d35a64736f6c63430005100032",
  "source": "pragma solidity ^0.5.0;\n\n/* \n    There is a lot of similarity. Can probably put transfer(),\n    approve(), transferFrom() implementations into here and just \n    inherit.\n*/\n\ncontract BaseTokenContract {\n    \n    // NOTE: child doesn't inherit the state variables.\n    // .. just the function and modifier.\n    address private flashLoanAddress;\n    address private ethSwapAddress;\n    address private deployerAddress;\n\n\n    constructor() public {\n    }\n\n    // IS INHERITED BY child, so each child has its own variable\n    // of this that is getting set.\n    function setFlashLoanAddress(address _flashLoanAddress) public \n    {\n        flashLoanAddress = _flashLoanAddress;\n    }\n\n    function setEthSwapAddress(address _ethSwapAddress) public \n    {\n        ethSwapAddress = _ethSwapAddress;\n    }\n\n    function setDeployerAddress(address _deployerAddress) public \n    {\n        deployerAddress = _deployerAddress;\n    }\n\n    modifier onlyFlashLoanContract(address originalSender) {\n        require(originalSender == flashLoanAddress, \"Function can only be called by the FlashLoan contract\");\n        _;\n    }\n\n    modifier fromFlashLoanEthSwapDeployer(address originalSender) {\n        require(originalSender == flashLoanAddress ||\n         originalSender == ethSwapAddress ||\n          originalSender == deployerAddress,\n         \"Function can only be called by FlashLoan, Ethswap, or Deployer\");        \n        _;\n    }\n    \n}\n",
  "sourcePath": "/Users/Nelson/Desktop/DEX-web-app/src/contracts/Parent Contracts/BaseTokenContract.sol",
  "compiler": {
    "name": "solc",
    "version": "0.5.16+commit.9c3226ce.Emscripten.clang"
  },
  "schemaVersion": "3.4.14",
  "updatedAt": "2023-07-22T19:24:49.232Z",
  "networkType": "ethereum",
  "devdoc": {
    "methods": {}
  },
  "userdoc": {
    "methods": {}
  }
}