{
  "contractName": "CharityPool",
  "abi": [
    {
      "anonymous": false,
      "inputs": [
        {
          "indexed": false,
          "internalType": "uint256",
          "name": "",
          "type": "uint256"
        }
      ],
      "name": "Values",
      "type": "event"
    },
    {
      "constant": true,
      "inputs": [],
      "name": "WEI_SCALE",
      "outputs": [
        {
          "internalType": "uint256",
          "name": "",
          "type": "uint256"
        }
      ],
      "payable": false,
      "stateMutability": "view",
      "type": "function"
    },
    {
      "constant": true,
      "inputs": [],
      "name": "WITHDRAW_AMOUNT",
      "outputs": [
        {
          "internalType": "uint8",
          "name": "",
          "type": "uint8"
        }
      ],
      "payable": false,
      "stateMutability": "view",
      "type": "function"
    },
    {
      "constant": true,
      "inputs": [
        {
          "internalType": "address",
          "name": "",
          "type": "address"
        }
      ],
      "name": "lastWithdrawalTime",
      "outputs": [
        {
          "internalType": "uint256",
          "name": "",
          "type": "uint256"
        }
      ],
      "payable": false,
      "stateMutability": "view",
      "type": "function"
    },
    {
      "constant": true,
      "inputs": [
        {
          "internalType": "address",
          "name": "",
          "type": "address"
        }
      ],
      "name": "locked",
      "outputs": [
        {
          "internalType": "bool",
          "name": "",
          "type": "bool"
        }
      ],
      "payable": false,
      "stateMutability": "view",
      "type": "function"
    },
    {
      "constant": true,
      "inputs": [],
      "name": "withdrawalCooldown",
      "outputs": [
        {
          "internalType": "uint256",
          "name": "",
          "type": "uint256"
        }
      ],
      "payable": false,
      "stateMutability": "view",
      "type": "function"
    },
    {
      "constant": false,
      "inputs": [],
      "name": "contribute",
      "outputs": [],
      "payable": true,
      "stateMutability": "payable",
      "type": "function"
    },
    {
      "constant": false,
      "inputs": [],
      "name": "withdraw",
      "outputs": [],
      "payable": false,
      "stateMutability": "nonpayable",
      "type": "function"
    },
    {
      "constant": false,
      "inputs": [],
      "name": "failedWithdrawAttack",
      "outputs": [],
      "payable": false,
      "stateMutability": "nonpayable",
      "type": "function"
    },
    {
      "constant": false,
      "inputs": [],
      "name": "successfulWithdrawAttack",
      "outputs": [],
      "payable": false,
      "stateMutability": "nonpayable",
      "type": "function"
    },
    {
      "constant": true,
      "inputs": [],
      "name": "getContractBalance",
      "outputs": [
        {
          "internalType": "uint256",
          "name": "",
          "type": "uint256"
        }
      ],
      "payable": false,
      "stateMutability": "view",
      "type": "function"
    },
    {
      "constant": false,
      "inputs": [],
      "name": "receiveEther",
      "outputs": [],
      "payable": true,
      "stateMutability": "payable",
      "type": "function"
    }
  ],
  "bytecode": "0x608060405260036000806101000a81548160ff021916908360ff160217905550670de0b6b3a7640000600155600a60045534801561003c57600080fd5b50610c4f8061004c6000396000f3fe60806040526004361061009c5760003560e01c8063a3912ec811610064578063a3912ec814610190578063ac262f7c1461019a578063cbf9fe5f146101c5578063d6c89c601461022e578063d7bb99ba14610259578063f7c31805146102635761009c565b8063205e2d79146100a15780633ccfd60b146100d25780634de5120e146100e95780635bf9204f1461014e5780636f9fb98a14610165575b600080fd5b3480156100ad57600080fd5b506100b661027a565b604051808260ff1660ff16815260200191505060405180910390f35b3480156100de57600080fd5b506100e761028c565b005b3480156100f557600080fd5b506101386004803603602081101561010c57600080fd5b81019080803573ffffffffffffffffffffffffffffffffffffffff169060200190929190505050610567565b6040518082815260200191505060405180910390f35b34801561015a57600080fd5b5061016361057f565b005b34801561017157600080fd5b5061017a61095d565b6040518082815260200191505060405180910390f35b61019861097c565b005b3480156101a657600080fd5b506101af61097e565b6040518082815260200191505060405180910390f35b3480156101d157600080fd5b50610214600480360360208110156101e857600080fd5b81019080803573ffffffffffffffffffffffffffffffffffffffff169060200190929190505050610984565b604051808215151515815260200191505060405180910390f35b34801561023a57600080fd5b506102436109a4565b6040518082815260200191505060405180910390f35b6102616109aa565b005b34801561026f57600080fd5b506102786109ac565b005b6000809054906101000a900460ff1681565b3073ffffffffffffffffffffffffffffffffffffffff16316001546000809054906101000a900460ff1660ff1602111561032e576040517f08c379a00000000000000000000000000000000000000000000000000000000081526004018080602001828103825260148152602001807f496e73756666696369656e742062616c616e636500000000000000000000000081525060200191505060405180910390fd5b7f15bc489a115e99409b5923d5c029c800436517330857b6506b39db4c8513522b6000809054906101000a900460ff16604051808260ff16815260200191505060405180910390a160003373ffffffffffffffffffffffffffffffffffffffff166001546000809054906101000a900460ff1660ff160260405180600001905060006040518083038185875af1925050503d80600081146103eb576040519150601f19603f3d011682016040523d82523d6000602084013e6103f0565b606091505b5050905080610467576040517f08c379a00000000000000000000000000000000000000000000000000000000081526004018080602001828103825260188152602001807f4661696c656420746f207472616e736665722066756e6473000000000000000081525060200191505060405180910390fd5b600454600360003373ffffffffffffffffffffffffffffffffffffffff1673ffffffffffffffffffffffffffffffffffffffff1681526020019081526020016000205401421015610520576040517f08c379a000000000000000000000000000000000000000000000000000000000815260040180806020018281038252601c8152602001807f436f6f6c646f776e20706572696f64206e6f74206f766572207965740000000081525060200191505060405180910390fd5b42600360003373ffffffffffffffffffffffffffffffffffffffff1673ffffffffffffffffffffffffffffffffffffffff1681526020019081526020016000208190555050565b60036020528060005260406000206000915090505481565b3073ffffffffffffffffffffffffffffffffffffffff16316001546000809054906101000a900460ff1660ff16021115610621576040517f08c379a00000000000000000000000000000000000000000000000000000000081526004018080602001828103825260148152602001807f496e73756666696369656e742062616c616e636500000000000000000000000081525060200191505060405180910390fd5b600260003373ffffffffffffffffffffffffffffffffffffffff1673ffffffffffffffffffffffffffffffffffffffff16815260200190815260200160002060009054906101000a900460ff16156106e1576040517f08c379a00000000000000000000000000000000000000000000000000000000081526004018080602001828103825260168152602001807f5769746864726177616c20696e2070726f67726573730000000000000000000081525060200191505060405180910390fd5b6001600260003373ffffffffffffffffffffffffffffffffffffffff1673ffffffffffffffffffffffffffffffffffffffff16815260200190815260200160002060006101000a81548160ff02191690831515021790555060606040516024016040516020818303038152906040527ff4a0470c000000000000000000000000000000000000000000000000000000007bffffffffffffffffffffffffffffffffffffffffffffffffffffffff19166020820180517bffffffffffffffffffffffffffffffffffffffffffffffffffffffff8381831617835250505050905060003373ffffffffffffffffffffffffffffffffffffffff166001546000809054906101000a900460ff1660ff1602836040518082805190602001908083835b602083106108235780518252602082019150602081019050602083039250610800565b6001836020036101000a03801982511681845116808217855250505050505090500191505060006040518083038185875af1925050503d8060008114610885576040519150601f19603f3d011682016040523d82523d6000602084013e61088a565b606091505b5050905080610901576040517f08c379a00000000000000000000000000000000000000000000000000000000081526004018080602001828103825260188152602001807f4661696c656420746f207472616e736665722066756e6473000000000000000081525060200191505060405180910390fd5b6000600260003373ffffffffffffffffffffffffffffffffffffffff1673ffffffffffffffffffffffffffffffffffffffff16815260200190815260200160002060006101000a81548160ff0219169083151502179055505050565b60003073ffffffffffffffffffffffffffffffffffffffff1631905090565b565b60015481565b60026020528060005260406000206000915054906101000a900460ff1681565b60045481565b565b3073ffffffffffffffffffffffffffffffffffffffff16316001546000809054906101000a900460ff1660ff16021115610a4e576040517f08c379a00000000000000000000000000000000000000000000000000000000081526004018080602001828103825260148152602001807f496e73756666696369656e742062616c616e636500000000000000000000000081525060200191505060405180910390fd5b60606040516024016040516020818303038152906040527f836afd3a000000000000000000000000000000000000000000000000000000007bffffffffffffffffffffffffffffffffffffffffffffffffffffffff19166020820180517bffffffffffffffffffffffffffffffffffffffffffffffffffffffff8381831617835250505050905060003373ffffffffffffffffffffffffffffffffffffffff166001546000809054906101000a900460ff1660ff1602836040518082805190602001908083835b60208310610b385780518252602082019150602081019050602083039250610b15565b6001836020036101000a03801982511681845116808217855250505050505090500191505060006040518083038185875af1925050503d8060008114610b9a576040519150601f19603f3d011682016040523d82523d6000602084013e610b9f565b606091505b5050905080610c16576040517f08c379a00000000000000000000000000000000000000000000000000000000081526004018080602001828103825260188152602001807f4661696c656420746f207472616e736665722066756e6473000000000000000081525060200191505060405180910390fd5b505056fea265627a7a72315820c8c5b29888f3961af7d047001e83a17d92459511e25bf3fa328a3c0f4dec531464736f6c63430005100032",
  "source": "\npragma solidity ^0.5.0;\n\ncontract CharityPool {    \n\n    // uint8 start focusing, save gas costs.\n    uint8 public WITHDRAW_AMOUNT = 3;\n    uint256 public WEI_SCALE = 10**18;\n\n    // Mapping to keep track of whether a user is currently withdrawing or not.\n    mapping(address => bool) public locked;\n\n    event Values(uint256);\n\n    mapping(address => uint) public lastWithdrawalTime;\n    uint public withdrawalCooldown = 10 seconds; \n\n    /*\n        CharityPool will automatically receive X ETH. Any user can \n        donate. But their amount goes into the cumulative total of the\n        contract, and it's no longer associated with their address.\n    */\n    function contribute() public payable \n    {\n        /* \n          If msg.value was, say 2 ETH (when 5 ETH was sent with \n          the transaction) then only 2 ETH gets deposited the contract's\n          balance.  The other 3 ETH remain with the user.\n          // (bool success, ) = address(this).call.value(msg.value=2)(\"\");\n        */\n    }\n\n    // Allow withdraw's if the user's hasn't last withdrawn within the cooldown period.\n    function withdraw() public \n    {    \n        require(WITHDRAW_AMOUNT * WEI_SCALE <= address(this).balance, \"Insufficient balance\");\n\n        emit Values(WITHDRAW_AMOUNT);\n\n        (bool success, ) = msg.sender.call.value(WITHDRAW_AMOUNT * WEI_SCALE)(\"\");\n        require(success, \"Failed to transfer funds\");\n\n        // NOTE: transaction t1, then t2, could have the same block.timestamp\n        // if mined in the same block.  \n        // default value for Solidity int is 0 (if msg.sender doesn't exist)\n        require(block.timestamp >= lastWithdrawalTime[msg.sender] + withdrawalCooldown, \"Cooldown period not over yet\");\n        lastWithdrawalTime[msg.sender] = block.timestamp;\n    }\n\n    // Function's Lock mechanism defends against a reentrancy attack.\n    function failedWithdrawAttack() public \n    {    \n        require(WITHDRAW_AMOUNT * WEI_SCALE <= address(this).balance, \"Insufficient balance\");\n        \n        // If msg.sender is new, they won't exist in the mapping.  Solidity mapping's\n        // .. in this case will return the default value of the datatype. Bool's\n        // .. default value is False.  So it's not locked!\n        require(!locked[msg.sender], \"Withdrawal in progress\");\n\n        // Set the lock to true to prevent reentrancy attacks\n        locked[msg.sender] = true;\n\n        // Line below hashes funcion sig = \"fallback1()\" into bytes for EVM to read\n        bytes memory payload = abi.encodeWithSignature(\"fallback1()\");\n        (bool success, ) = msg.sender.call.value(WITHDRAW_AMOUNT * WEI_SCALE)(payload);\n        // msg.sender.transfer(WITHDRAW_AMOUNT * WEI_SCALE);  \n        require(success, \"Failed to transfer funds\");\n\n        locked[msg.sender] = false;\n    }\n\n    function successfulWithdrawAttack() public \n    {    \n        require(WITHDRAW_AMOUNT * WEI_SCALE <= address(this).balance, \"Insufficient balance\");\n\n        bytes memory payload = abi.encodeWithSignature(\"fallback2()\");\n        (bool success, ) = msg.sender.call.value(WITHDRAW_AMOUNT * WEI_SCALE)(payload);\n        require(success, \"Failed to transfer funds\");\n    }\n\n\n    function getContractBalance() public view returns (uint256) {\n        return address(this).balance;\n    }\n\n\n    function receiveEther() external payable \n    {\n     //msg.sender.transfer(3000000000000000000);\n    }\n\n}\n",
  "sourcePath": "/Users/Nelson/Desktop/DEX-web-app/src/contracts/Hack And Charity Pool/CharityPool.sol",
  "compiler": {
    "name": "solc",
    "version": "0.5.16+commit.9c3226ce.Emscripten.clang"
  },
  "schemaVersion": "3.4.14",
  "updatedAt": "2023-07-24T18:30:53.495Z",
  "networkType": "ethereum",
  "devdoc": {
    "methods": {}
  },
  "userdoc": {
    "methods": {}
  }
}