{
  "contractName": "CharityPool",
  "abi": [
    {
      "constant": true,
      "inputs": [],
      "name": "WITHDRAW_AMOUNT",
      "outputs": [
        {
          "internalType": "uint8",
          "name": "",
          "type": "uint8"
        }
      ],
      "payable": false,
      "stateMutability": "view",
      "type": "function"
    },
    {
      "constant": false,
      "inputs": [],
      "name": "contribute",
      "outputs": [],
      "payable": true,
      "stateMutability": "payable",
      "type": "function"
    },
    {
      "constant": false,
      "inputs": [],
      "name": "withdraw",
      "outputs": [],
      "payable": false,
      "stateMutability": "nonpayable",
      "type": "function"
    }
  ],
  "bytecode": "0x608060405260056000806101000a81548160ff021916908360ff16021790555034801561002b57600080fd5b5061033c8061003b6000396000f3fe6080604052600436106100345760003560e01c8063205e2d79146100395780633ccfd60b1461006a578063d7bb99ba14610081575b600080fd5b34801561004557600080fd5b5061004e61008b565b604051808260ff1660ff16815260200191505060405180910390f35b34801561007657600080fd5b5061007f61009d565b005b610089610228565b005b6000809054906101000a900460ff1681565b3073ffffffffffffffffffffffffffffffffffffffff16316000809054906101000a900460ff1660ff16111561013b576040517f08c379a00000000000000000000000000000000000000000000000000000000081526004018080602001828103825260148152602001807f496e73756666696369656e742062616c616e636500000000000000000000000081525060200191505060405180910390fd5b60003373ffffffffffffffffffffffffffffffffffffffff166000809054906101000a900460ff1660405180600001905060006040518083038185875af1925050503d80600081146101a9576040519150601f19603f3d011682016040523d82523d6000602084013e6101ae565b606091505b5050905080610225576040517f08c379a00000000000000000000000000000000000000000000000000000000081526004018080602001828103825260188152602001807f4661696c656420746f207472616e736665722066756e6473000000000000000081525060200191505060405180910390fd5b50565b60003073ffffffffffffffffffffffffffffffffffffffff163460405180600001905060006040518083038185875af1925050503d8060008114610288576040519150601f19603f3d011682016040523d82523d6000602084013e61028d565b606091505b5050905080610304576040517f08c379a00000000000000000000000000000000000000000000000000000000081526004018080602001828103825260188152602001807f4661696c656420746f207472616e736665722066756e6473000000000000000081525060200191505060405180910390fd5b5056fea265627a7a723158206eef05f376f03ca03d69184d3801a7f60d1867f2be92f319279457aaa74a248464736f6c63430005100032",
  "source": "\npragma solidity ^0.5.0;\n\ncontract CharityPool {    \n\n    // uint8 start focusing, save gas costs.\n    uint8 public WITHDRAW_AMOUNT = 5;\n\n\n\n//     mapping(address => uint) public lastWithdrawalTime;\n\n//     uint public withdrawalCooldown = 1 weeks; \n\n    /*\n        CharityPool will automatically receive X ETH. Any user can \n        donate. But their amount goes into the cumulative total of the\n        contract, and it's no longer associated with their address.\n    */\n    function contribute() public payable \n    {\n        /* \n          Code below is only needed for readability.  As the ETH value\n          is automatically deposited to the contract balance without it.\n          \n          However, if msg.value was, say 2 ETH (when 5 ETH was sent with \n          the transaction) then only 2 ETH gets deposited the contract's\n          balance.  The other 3 ETH remain with the user. \n        */\n        (bool success, ) = address(this).call.value(msg.value)(\"\");\n        require(success, \"Failed to transfer funds\");\n    }\n\n\n\n    function withdraw() public \n    {    \n        require(WITHDRAW_AMOUNT <= address(this).balance, \"Insufficient balance\");\n        \n\n //        require(!locked[msg.sender], \"Withdrawal in progress\");\n\n\n\n        // call is a low-level built in Solidity function that transfer's \n        // ..ETH from contract account to msg.sender\n        (bool success, ) = msg.sender.call.value(WITHDRAW_AMOUNT)(\"\");\n        require(success, \"Failed to transfer funds\");\n\n\n //        locked[msg.sender] = false; // Release the lock\n\n        /// MAKE PART BELOW SEP FUNC. test withdrawal time\n        //         require(block.timestamp >= lastWithdrawalTime[msg.sender] + withdrawalCooldown, \"Cooldown period not over yet\");\n//         lastWithdrawalTime[msg.sender] = block.timestamp;\n\n    }\n}\n",
  "sourcePath": "/Users/Nelson/Desktop/DEX-web-app/src/contracts/Hack And Charity Pool/CharityPool.sol",
  "compiler": {
    "name": "solc",
    "version": "0.5.16+commit.9c3226ce.Emscripten.clang"
  },
  "schemaVersion": "3.4.14",
  "updatedAt": "2023-07-14T20:13:23.840Z",
  "networkType": "ethereum",
  "devdoc": {
    "methods": {}
  },
  "userdoc": {
    "methods": {}
  }
}