{
  "contractName": "CharityPool",
  "abi": [
    {
      "anonymous": false,
      "inputs": [
        {
          "indexed": false,
          "internalType": "uint256",
          "name": "",
          "type": "uint256"
        }
      ],
      "name": "Values",
      "type": "event"
    },
    {
      "constant": true,
      "inputs": [],
      "name": "WEI_SCALE",
      "outputs": [
        {
          "internalType": "uint256",
          "name": "",
          "type": "uint256"
        }
      ],
      "payable": false,
      "stateMutability": "view",
      "type": "function"
    },
    {
      "constant": true,
      "inputs": [],
      "name": "WITHDRAW_AMOUNT",
      "outputs": [
        {
          "internalType": "uint8",
          "name": "",
          "type": "uint8"
        }
      ],
      "payable": false,
      "stateMutability": "view",
      "type": "function"
    },
    {
      "constant": false,
      "inputs": [],
      "name": "contribute",
      "outputs": [],
      "payable": true,
      "stateMutability": "payable",
      "type": "function"
    },
    {
      "constant": false,
      "inputs": [],
      "name": "withdraw",
      "outputs": [],
      "payable": false,
      "stateMutability": "nonpayable",
      "type": "function"
    },
    {
      "constant": true,
      "inputs": [],
      "name": "getContractBalance",
      "outputs": [
        {
          "internalType": "uint256",
          "name": "",
          "type": "uint256"
        }
      ],
      "payable": false,
      "stateMutability": "view",
      "type": "function"
    },
    {
      "constant": false,
      "inputs": [],
      "name": "receiveEther",
      "outputs": [],
      "payable": true,
      "stateMutability": "payable",
      "type": "function"
    }
  ],
  "bytecode": "0x608060405260036000806101000a81548160ff021916908360ff160217905550670de0b6b3a764000060015534801561003757600080fd5b5061027c806100476000396000f3fe6080604052600436106100555760003560e01c8063205e2d791461005a5780633ccfd60b1461008b5780636f9fb98a146100a2578063a3912ec8146100cd578063ac262f7c146100d7578063d7bb99ba14610102575b600080fd5b34801561006657600080fd5b5061006f61010c565b604051808260ff1660ff16815260200191505060405180910390f35b34801561009757600080fd5b506100a061011e565b005b3480156100ae57600080fd5b506100b761021e565b6040518082815260200191505060405180910390f35b6100d561023d565b005b3480156100e357600080fd5b506100ec61023f565b6040518082815260200191505060405180910390f35b61010a610245565b005b6000809054906101000a900460ff1681565b3073ffffffffffffffffffffffffffffffffffffffff16316001546000809054906101000a900460ff1660ff160211156101c0576040517f08c379a00000000000000000000000000000000000000000000000000000000081526004018080602001828103825260148152602001807f496e73756666696369656e742062616c616e636500000000000000000000000081525060200191505060405180910390fd5b3373ffffffffffffffffffffffffffffffffffffffff166108fc6001546000809054906101000a900460ff1660ff16029081150290604051600060405180830381858888f1935050505015801561021b573d6000803e3d6000fd5b50565b60003073ffffffffffffffffffffffffffffffffffffffff1631905090565b565b60015481565b56fea265627a7a72315820ac430f1c08f730361ed94bb8fbb253cd2791f2df7620c52b825fae11ecd820aa64736f6c63430005100032",
  "source": "\npragma solidity ^0.5.0;\n\ncontract CharityPool {    \n\n    // uint8 start focusing, save gas costs.\n    uint8 public WITHDRAW_AMOUNT = 3;\n    uint256 public WEI_SCALE = 10**18;\n\n\n    event Values(uint256);\n\n//     mapping(address => uint) public lastWithdrawalTime;\n\n//     uint public withdrawalCooldown = 1 weeks; \n\n    /*\n        CharityPool will automatically receive X ETH. Any user can \n        donate. But their amount goes into the cumulative total of the\n        contract, and it's no longer associated with their address.\n    */\n    function contribute() public payable \n    {\n        /* \n          Code below is only needed for readability.  As the ETH value\n          is automatically deposited to the contract balance without it.\n          \n          However, if msg.value was, say 2 ETH (when 5 ETH was sent with \n          the transaction) then only 2 ETH gets deposited the contract's\n          balance.  The other 3 ETH remain with the user. \n        */\n\n\n        // CODE BELOW IS ACTUALLY FAILING: transfer could be sucessfull, but\n        // this low level call is not, so lets not use it.\n\n        //emit Values(msg.value);\n        // (bool success, ) = address(this).call.value(msg.value)(\"\");\n        // //require(success, \"Failed to transfer funds\");\n    }\n\n\n\n    function withdraw() public \n    {    \n        require(WITHDRAW_AMOUNT * WEI_SCALE <= address(this).balance, \"Insufficient balance\");\n        \n\n //        require(!locked[msg.sender], \"Withdrawal in progress\");\n\n\n\n        // call is a low-level built in Solidity function that transfer's \n        // ..ETH from contract account to msg.sender\n        //(bool success, ) = msg.sender.call.value(WITHDRAW_AMOUNT)(\"\");\n\n        \n\n        msg.sender.transfer(WITHDRAW_AMOUNT * WEI_SCALE);  \n\n\n        //msg.sender.transfer(WITHDRAW_AMOUNT);\n\n        //require(success, \"Failed to transfer funds\");\n\n\n //        locked[msg.sender] = false; // Release the lock\n\n        /// MAKE PART BELOW SEP FUNC. test withdrawal time\n        //         require(block.timestamp >= lastWithdrawalTime[msg.sender] + withdrawalCooldown, \"Cooldown period not over yet\");\n//         lastWithdrawalTime[msg.sender] = block.timestamp;\n\n    }\n\n\n    function getContractBalance() public view returns (uint256) {\n        return address(this).balance;\n    }\n\n\n    function receiveEther() external payable \n    {\n     //msg.sender.transfer(3000000000000000000);\n    }\n\n}\n",
  "sourcePath": "/Users/Nelson/Desktop/DEX-web-app/src/contracts/Hack And Charity Pool/CharityPool.sol",
  "compiler": {
    "name": "solc",
    "version": "0.5.16+commit.9c3226ce.Emscripten.clang"
  },
  "schemaVersion": "3.4.14",
  "updatedAt": "2023-07-20T22:56:25.994Z",
  "networkType": "ethereum",
  "devdoc": {
    "methods": {}
  },
  "userdoc": {
    "methods": {}
  }
}