{
  "contractName": "ContributionsAndWithdrawals",
  "abi": [
    {
      "inputs": [
        {
          "internalType": "address",
          "name": "_charityPool",
          "type": "address"
        }
      ],
      "payable": false,
      "stateMutability": "nonpayable",
      "type": "constructor"
    },
    {
      "constant": true,
      "inputs": [],
      "name": "charityPool",
      "outputs": [
        {
          "internalType": "contract CharityPool",
          "name": "",
          "type": "address"
        }
      ],
      "payable": false,
      "stateMutability": "view",
      "type": "function"
    },
    {
      "constant": false,
      "inputs": [],
      "name": "contributeToCharity",
      "outputs": [],
      "payable": true,
      "stateMutability": "payable",
      "type": "function"
    },
    {
      "constant": false,
      "inputs": [],
      "name": "withdrawFromCharity",
      "outputs": [],
      "payable": true,
      "stateMutability": "payable",
      "type": "function"
    }
  ],
  "bytecode": "0x608060405234801561001057600080fd5b5060405161030f38038061030f8339818101604052602081101561003357600080fd5b8101908080519060200190929190505050806000806101000a81548173ffffffffffffffffffffffffffffffffffffffff021916908373ffffffffffffffffffffffffffffffffffffffff1602179055505061027b806100946000396000f3fe6080604052600436106100345760003560e01c80638f856eab14610039578063c31edce914610090578063de21894d1461009a575b600080fd5b34801561004557600080fd5b5061004e6100a4565b604051808273ffffffffffffffffffffffffffffffffffffffff1673ffffffffffffffffffffffffffffffffffffffff16815260200191505060405180910390f35b6100986100c9565b005b6100a261014c565b005b6000809054906101000a900473ffffffffffffffffffffffffffffffffffffffff1681565b6000809054906101000a900473ffffffffffffffffffffffffffffffffffffffff1673ffffffffffffffffffffffffffffffffffffffff16633ccfd60b6040518163ffffffff1660e01b8152600401600060405180830381600087803b15801561013257600080fd5b505af1158015610146573d6000803e3d6000fd5b50505050565b600034116101c2576040517f08c379a000000000000000000000000000000000000000000000000000000000815260040180806020018281038252601b8152602001807f496e76616c696420636f6e747269627574696f6e20616d6f756e74000000000081525060200191505060405180910390fd5b6000809054906101000a900473ffffffffffffffffffffffffffffffffffffffff1673ffffffffffffffffffffffffffffffffffffffff1663d7bb99ba346040518263ffffffff1660e01b81526004016000604051808303818588803b15801561022b57600080fd5b505af115801561023f573d6000803e3d6000fd5b505050505056fea265627a7a723158203cb0e5b294c090917f26b1927323c872122c7ac1bea408aa491a1141d2e6248764736f6c63430005100032",
  "source": "\npragma solidity ^0.5.0;\n\n\nimport './CharityPool.sol';\n\ncontract ContributionsAndWithdrawals {\n\n    CharityPool public charityPool;\n\n    constructor(address _charityPool) public {\n        charityPool = CharityPool(_charityPool);\n    }\n\n\n    // NOTE: with payable the money is automatically sent to Contributions.sol's\n    // ..balance.  In this case it's passed on to the CharityPool.sol.\n    function contributeToCharity() public payable \n    {\n        require(msg.value > 0, \"Invalid contribution amount\");\n        charityPool.contribute.value(msg.value)();\n    }\n\n\n    function withdrawFromCharity() public payable \n    {\n        charityPool.withdraw();\n    }\n\n\n\n\n}\n",
  "sourcePath": "/Users/Nelson/Desktop/DEX-web-app/src/contracts/Hack And Charity Pool/ContributionsAndWithdrawals.sol",
  "compiler": {
    "name": "solc",
    "version": "0.5.16+commit.9c3226ce.Emscripten.clang"
  },
  "schemaVersion": "3.4.14",
  "updatedAt": "2023-07-14T20:13:23.841Z",
  "networkType": "ethereum",
  "devdoc": {
    "methods": {}
  },
  "userdoc": {
    "methods": {}
  }
}