{
  "contractName": "ContractRegistry",
  "abi": [
    {
      "inputs": [
        {
          "internalType": "address",
          "name": "_flashLoanAddress",
          "type": "address"
        },
        {
          "internalType": "address[]",
          "name": "_tokens",
          "type": "address[]"
        }
      ],
      "payable": false,
      "stateMutability": "nonpayable",
      "type": "constructor"
    },
    {
      "constant": true,
      "inputs": [],
      "name": "flashLoanAddress",
      "outputs": [
        {
          "internalType": "address",
          "name": "",
          "type": "address"
        }
      ],
      "payable": false,
      "stateMutability": "view",
      "type": "function"
    },
    {
      "constant": true,
      "inputs": [
        {
          "internalType": "uint256",
          "name": "",
          "type": "uint256"
        }
      ],
      "name": "myArray",
      "outputs": [
        {
          "internalType": "contract BaseTokenContract",
          "name": "",
          "type": "address"
        }
      ],
      "payable": false,
      "stateMutability": "view",
      "type": "function"
    }
  ],
  "bytecode": "0x608060405234801561001057600080fd5b50604051610a05380380610a058339818101604052604081101561003357600080fd5b81019080805190602001909291908051604051939291908464010000000082111561005d57600080fd5b8382019150602082018581111561007357600080fd5b825186602082028301116401000000008211171561009057600080fd5b8083526020830192505050908051906020019060200280838360005b838110156100c75780820151818401526020810190506100ac565b50505050905001604052505050816000806101000a81548173ffffffffffffffffffffffffffffffffffffffff021916908373ffffffffffffffffffffffffffffffffffffffff16021790555060018160008151811061012357fe5b602002602001015190806001815401808255809150509060018203906000526020600020016000909192909190916101000a81548173ffffffffffffffffffffffffffffffffffffffff021916908373ffffffffffffffffffffffffffffffffffffffff1602179055505060018160018151811061019d57fe5b602002602001015190806001815401808255809150509060018203906000526020600020016000909192909190916101000a81548173ffffffffffffffffffffffffffffffffffffffff021916908373ffffffffffffffffffffffffffffffffffffffff1602179055505060018160028151811061021757fe5b602002602001015190806001815401808255809150509060018203906000526020600020016000909192909190916101000a81548173ffffffffffffffffffffffffffffffffffffffff021916908373ffffffffffffffffffffffffffffffffffffffff1602179055505060018160038151811061029157fe5b602002602001015190806001815401808255809150509060018203906000526020600020016000909192909190916101000a81548173ffffffffffffffffffffffffffffffffffffffff021916908373ffffffffffffffffffffffffffffffffffffffff1602179055505060018160048151811061030b57fe5b602002602001015190806001815401808255809150509060018203906000526020600020016000909192909190916101000a81548173ffffffffffffffffffffffffffffffffffffffff021916908373ffffffffffffffffffffffffffffffffffffffff1602179055505060018160058151811061038557fe5b602002602001015190806001815401808255809150509060018203906000526020600020016000909192909190916101000a81548173ffffffffffffffffffffffffffffffffffffffff021916908373ffffffffffffffffffffffffffffffffffffffff160217905550506001816006815181106103ff57fe5b602002602001015190806001815401808255809150509060018203906000526020600020016000909192909190916101000a81548173ffffffffffffffffffffffffffffffffffffffff021916908373ffffffffffffffffffffffffffffffffffffffff1602179055505060018160078151811061047957fe5b602002602001015190806001815401808255809150509060018203906000526020600020016000909192909190916101000a81548173ffffffffffffffffffffffffffffffffffffffff021916908373ffffffffffffffffffffffffffffffffffffffff160217905550506001816008815181106104f357fe5b602002602001015190806001815401808255809150509060018203906000526020600020016000909192909190916101000a81548173ffffffffffffffffffffffffffffffffffffffff021916908373ffffffffffffffffffffffffffffffffffffffff1602179055505060018160098151811061056d57fe5b602002602001015190806001815401808255809150509060018203906000526020600020016000909192909190916101000a81548173ffffffffffffffffffffffffffffffffffffffff021916908373ffffffffffffffffffffffffffffffffffffffff16021790555050600181600a815181106105e757fe5b602002602001015190806001815401808255809150509060018203906000526020600020016000909192909190916101000a81548173ffffffffffffffffffffffffffffffffffffffff021916908373ffffffffffffffffffffffffffffffffffffffff16021790555050600181600b8151811061066157fe5b602002602001015190806001815401808255809150509060018203906000526020600020016000909192909190916101000a81548173ffffffffffffffffffffffffffffffffffffffff021916908373ffffffffffffffffffffffffffffffffffffffff16021790555050600181600c815181106106db57fe5b602002602001015190806001815401808255809150509060018203906000526020600020016000909192909190916101000a81548173ffffffffffffffffffffffffffffffffffffffff021916908373ffffffffffffffffffffffffffffffffffffffff1602179055505061075461075b60201b60201c565b505061086d565b60008090505b60018054905081101561086a576001818154811061077b57fe5b9060005260206000200160009054906101000a900473ffffffffffffffffffffffffffffffffffffffff1673ffffffffffffffffffffffffffffffffffffffff1663a4e0928a6000809054906101000a900473ffffffffffffffffffffffffffffffffffffffff166040518263ffffffff1660e01b8152600401808273ffffffffffffffffffffffffffffffffffffffff1673ffffffffffffffffffffffffffffffffffffffff168152602001915050600060405180830381600087803b15801561084557600080fd5b505af1158015610859573d6000803e3d6000fd5b505050508080600101915050610761565b50565b6101898061087c6000396000f3fe608060405234801561001057600080fd5b50600436106100365760003560e01c80634169467d1461003b578063cc3e57d914610085575b600080fd5b6100436100f3565b604051808273ffffffffffffffffffffffffffffffffffffffff1673ffffffffffffffffffffffffffffffffffffffff16815260200191505060405180910390f35b6100b16004803603602081101561009b57600080fd5b8101908080359060200190929190505050610118565b604051808273ffffffffffffffffffffffffffffffffffffffff1673ffffffffffffffffffffffffffffffffffffffff16815260200191505060405180910390f35b6000809054906101000a900473ffffffffffffffffffffffffffffffffffffffff1681565b6001818154811061012557fe5b906000526020600020016000915054906101000a900473ffffffffffffffffffffffffffffffffffffffff168156fea265627a7a7231582026bdca63488509d7ec9473a32dabc9d68a3ffb14d8f171db8932fcff5287013d64736f6c63430005100032",
  "source": "\npragma solidity ^0.5.0;\n\nimport './Parent Contracts/BaseTokenContract.sol';\n\nimport './ERC-20 Tokens/Token.sol';\nimport './ERC-20 Tokens/NRM_Token.sol';\nimport './ERC-20 Tokens/NAR_Token.sol';\nimport './ERC-20 Tokens/ADN_Token.sol';\nimport './ERC-20 Tokens/WHN_Token.sol';\nimport './ERC-20 Tokens/NKF_Token.sol';\nimport './ERC-20 Tokens/CIH_Token.sol';\nimport './ERC-20 Tokens/NSR_Token.sol';\nimport './ERC-20 Tokens/JN_Token.sol';\nimport './ERC-20 Tokens/NCN_Token.sol';\nimport './ERC-20 Tokens/EHN_Token.sol';\nimport './ERC-20 Tokens/JRN_Token.sol';\nimport './ERC-20 Tokens/JLN_Token.sol';\n\ncontract ContractRegistry {\n\n    address public flashLoanAddress;\n    BaseTokenContract[] public myArray;\n\n    // Using Polymorphism. Instantiate child, set it to parent type.\n    constructor(address _flashLoanAddress, address[] memory _tokens) public \n    {\n        flashLoanAddress = _flashLoanAddress;   \n\n        myArray.push(Token(_tokens[0]));\n        myArray.push(NRM_Token(_tokens[1]));\n        myArray.push(NAR_Token(_tokens[2]));\n        myArray.push(ADN_Token(_tokens[3]));\n        myArray.push(WHN_Token(_tokens[4]));\n        myArray.push(NKF_Token(_tokens[5]));\n        myArray.push(CIH_Token(_tokens[6]));\n        myArray.push(NSR_Token(_tokens[7]));\n        myArray.push(JN_Token(_tokens[8]));\n        myArray.push(NCN_Token(_tokens[9]));\n        myArray.push(EHN_Token(_tokens[10]));\n        myArray.push(JRN_Token(_tokens[11]));\n        myArray.push(JLN_Token(_tokens[12]));\n\n        setFlashLoanAddressForTokens();\n    }\n\n    function setFlashLoanAddressForTokens() internal\n    {\n        for (uint i = 0; i < myArray.length; i++) \n        {\n            myArray[i].setFlashLoanAddress(flashLoanAddress);\n        }\n    }\n\n}\n",
  "sourcePath": "/Users/Nelson/Desktop/DEX-web-app/src/contracts/ContractRegistry.sol",
  "compiler": {
    "name": "solc",
    "version": "0.5.16+commit.9c3226ce.Emscripten.clang"
  },
  "schemaVersion": "3.4.14",
  "updatedAt": "2023-07-11T23:11:26.692Z",
  "devdoc": {
    "methods": {}
  },
  "userdoc": {
    "methods": {}
  }
}