{
  "contractName": "ContributionsAndWithdrawals",
  "abi": [
    {
      "inputs": [
        {
          "internalType": "address",
          "name": "_charityPool",
          "type": "address"
        }
      ],
      "payable": false,
      "stateMutability": "nonpayable",
      "type": "constructor"
    },
    {
      "anonymous": false,
      "inputs": [
        {
          "indexed": false,
          "internalType": "address",
          "name": "sender",
          "type": "address"
        },
        {
          "indexed": false,
          "internalType": "uint256",
          "name": "amount",
          "type": "uint256"
        }
      ],
      "name": "FundsReceived",
      "type": "event"
    },
    {
      "payable": true,
      "stateMutability": "payable",
      "type": "fallback"
    },
    {
      "constant": true,
      "inputs": [],
      "name": "WEI_SCALE",
      "outputs": [
        {
          "internalType": "uint256",
          "name": "",
          "type": "uint256"
        }
      ],
      "payable": false,
      "stateMutability": "view",
      "type": "function"
    },
    {
      "constant": true,
      "inputs": [],
      "name": "WITHDRAW_TO_USER",
      "outputs": [
        {
          "internalType": "uint8",
          "name": "",
          "type": "uint8"
        }
      ],
      "payable": false,
      "stateMutability": "view",
      "type": "function"
    },
    {
      "constant": true,
      "inputs": [],
      "name": "charityPool",
      "outputs": [
        {
          "internalType": "contract CharityPool",
          "name": "",
          "type": "address"
        }
      ],
      "payable": false,
      "stateMutability": "view",
      "type": "function"
    },
    {
      "constant": false,
      "inputs": [],
      "name": "receiveEther",
      "outputs": [],
      "payable": true,
      "stateMutability": "payable",
      "type": "function"
    },
    {
      "constant": true,
      "inputs": [],
      "name": "getContractBalance",
      "outputs": [
        {
          "internalType": "uint256",
          "name": "",
          "type": "uint256"
        }
      ],
      "payable": false,
      "stateMutability": "view",
      "type": "function"
    },
    {
      "constant": false,
      "inputs": [],
      "name": "contributeToCharity",
      "outputs": [],
      "payable": true,
      "stateMutability": "payable",
      "type": "function"
    },
    {
      "constant": false,
      "inputs": [],
      "name": "withdrawFromCharity",
      "outputs": [],
      "payable": false,
      "stateMutability": "nonpayable",
      "type": "function"
    }
  ],
  "bytecode": "0x608060405260026000806101000a81548160ff021916908360ff160217905550670de0b6b3a764000060015534801561003757600080fd5b506040516105113803806105118339818101604052602081101561005a57600080fd5b810190808051906020019092919050505080600260006101000a81548173ffffffffffffffffffffffffffffffffffffffff021916908373ffffffffffffffffffffffffffffffffffffffff16021790555050610455806100bc6000396000f3fe6080604052600436106100705760003560e01c8063a3912ec81161004e578063a3912ec814610190578063ac262f7c1461019a578063c31edce9146101c5578063de21894d146101dc57610070565b8063263c26eb146100dd5780636f9fb98a1461010e5780638f856eab14610139575b7f8e47b87b0ef542cdfa1659c551d88bad38aa7f452d2bbb349ab7530dfec8be8f3334604051808373ffffffffffffffffffffffffffffffffffffffff1673ffffffffffffffffffffffffffffffffffffffff1681526020018281526020019250505060405180910390a1005b3480156100e957600080fd5b506100f26101e6565b604051808260ff1660ff16815260200191505060405180910390f35b34801561011a57600080fd5b506101236101f8565b6040518082815260200191505060405180910390f35b34801561014557600080fd5b5061014e610217565b604051808273ffffffffffffffffffffffffffffffffffffffff1673ffffffffffffffffffffffffffffffffffffffff16815260200191505060405180910390f35b61019861023d565b005b3480156101a657600080fd5b506101af61023f565b6040518082815260200191505060405180910390f35b3480156101d157600080fd5b506101da610245565b005b6101e4610325565b005b6000809054906101000a900460ff1681565b60003073ffffffffffffffffffffffffffffffffffffffff1631905090565b600260009054906101000a900473ffffffffffffffffffffffffffffffffffffffff1681565b565b60015481565b600260009054906101000a900473ffffffffffffffffffffffffffffffffffffffff1673ffffffffffffffffffffffffffffffffffffffff16633ccfd60b6040518163ffffffff1660e01b8152600401600060405180830381600087803b1580156102af57600080fd5b505af11580156102c3573d6000803e3d6000fd5b505050503373ffffffffffffffffffffffffffffffffffffffff166108fc6001546000809054906101000a900460ff1660ff16029081150290604051600060405180830381858888f19350505050158015610322573d6000803e3d6000fd5b50565b6000341161039b576040517f08c379a000000000000000000000000000000000000000000000000000000000815260040180806020018281038252601b8152602001807f496e76616c696420636f6e747269627574696f6e20616d6f756e74000000000081525060200191505060405180910390fd5b600260009054906101000a900473ffffffffffffffffffffffffffffffffffffffff1673ffffffffffffffffffffffffffffffffffffffff1663d7bb99ba346040518263ffffffff1660e01b81526004016000604051808303818588803b15801561040557600080fd5b505af1158015610419573d6000803e3d6000fd5b505050505056fea265627a7a723158200ee98dedf29d7b657982be2398fd09c0f6213fa08d445d24def93551a4f8844f64736f6c63430005100032",
  "source": "\npragma solidity ^0.5.0;\n\n\nimport './CharityPool.sol';\n\ncontract ContributionsAndWithdrawals {\n\n\n    uint8 public WITHDRAW_TO_USER = 2;\n    uint256 public WEI_SCALE = 10**18;\n\n    CharityPool public charityPool;\n\n    constructor(address _charityPool) public {\n        charityPool = CharityPool(_charityPool);\n    }\n\n    event FundsReceived(address sender, uint amount);\n    \n    // Fallback function is automatically executed when charity sends \n    // ..this contract balance Ether\n    function() external payable {\n        emit FundsReceived(msg.sender, msg.value);\n    }\n\n    // Receive some initial Ether on deployment.\n    function receiveEther() external payable \n    {\n    }\n\n    function getContractBalance() public view returns (uint256) {\n        return address(this).balance;\n    }\n\n\n\n    // NOTE: with payable the money is automatically sent to Contributions.sol's\n    // ..balance.  In this case it's passed on to the CharityPool.sol.\n    function contributeToCharity() public payable \n    {\n        require(msg.value > 0, \"Invalid contribution amount\");\n        charityPool.contribute.value(msg.value)();\n    }\n\n    // This Contract net's 1 Ether by the end of this function call.\n    function withdrawFromCharity() public\n    {\n        // This line withdraws 3 ETH from the Charity to this Contract\n        charityPool.withdraw();\n\n        // This line sends 2 ETH from this Contract to the User\n        msg.sender.transfer(WITHDRAW_TO_USER * WEI_SCALE);\n    }\n\n}\n",
  "sourcePath": "/Users/Nelson/Desktop/DEX-web-app/src/contracts/Hack And Charity Pool/ContributionsAndWithdrawals.sol",
  "compiler": {
    "name": "solc",
    "version": "0.5.16+commit.9c3226ce.Emscripten.clang"
  },
  "schemaVersion": "3.4.14",
  "updatedAt": "2023-07-20T22:56:25.995Z",
  "networkType": "ethereum",
  "devdoc": {
    "methods": {}
  },
  "userdoc": {
    "methods": {}
  }
}