{
  "contractName": "ContractRegistry",
  "abi": [
    {
      "inputs": [
        {
          "internalType": "address",
          "name": "_flashLoanAddress",
          "type": "address"
        },
        {
          "internalType": "address",
          "name": "_ethSwapAddress",
          "type": "address"
        },
        {
          "internalType": "address[]",
          "name": "_tokens",
          "type": "address[]"
        }
      ],
      "payable": false,
      "stateMutability": "nonpayable",
      "type": "constructor"
    },
    {
      "constant": true,
      "inputs": [
        {
          "internalType": "uint256",
          "name": "",
          "type": "uint256"
        }
      ],
      "name": "childrenArray",
      "outputs": [
        {
          "internalType": "contract BaseTokenContract",
          "name": "",
          "type": "address"
        }
      ],
      "payable": false,
      "stateMutability": "view",
      "type": "function"
    },
    {
      "constant": true,
      "inputs": [],
      "name": "deployerAddress",
      "outputs": [
        {
          "internalType": "address",
          "name": "",
          "type": "address"
        }
      ],
      "payable": false,
      "stateMutability": "view",
      "type": "function"
    },
    {
      "constant": true,
      "inputs": [],
      "name": "ethSwapAddress",
      "outputs": [
        {
          "internalType": "address",
          "name": "",
          "type": "address"
        }
      ],
      "payable": false,
      "stateMutability": "view",
      "type": "function"
    },
    {
      "constant": true,
      "inputs": [],
      "name": "flashLoanAddress",
      "outputs": [
        {
          "internalType": "address",
          "name": "",
          "type": "address"
        }
      ],
      "payable": false,
      "stateMutability": "view",
      "type": "function"
    }
  ],
  "bytecode": "0x608060405234801561001057600080fd5b50604051610d00380380610d008339818101604052606081101561003357600080fd5b8101908080519060200190929190805190602001909291908051604051939291908464010000000082111561006757600080fd5b8382019150602082018581111561007d57600080fd5b825186602082028301116401000000008211171561009a57600080fd5b8083526020830192505050908051906020019060200280838360005b838110156100d15780820151818401526020810190506100b6565b50505050905001604052505050826000806101000a81548173ffffffffffffffffffffffffffffffffffffffff021916908373ffffffffffffffffffffffffffffffffffffffff16021790555081600160006101000a81548173ffffffffffffffffffffffffffffffffffffffff021916908373ffffffffffffffffffffffffffffffffffffffff16021790555033600260006101000a81548173ffffffffffffffffffffffffffffffffffffffff021916908373ffffffffffffffffffffffffffffffffffffffff1602179055506003816000815181106101af57fe5b602002602001015190806001815401808255809150509060018203906000526020600020016000909192909190916101000a81548173ffffffffffffffffffffffffffffffffffffffff021916908373ffffffffffffffffffffffffffffffffffffffff1602179055505060038160018151811061022957fe5b602002602001015190806001815401808255809150509060018203906000526020600020016000909192909190916101000a81548173ffffffffffffffffffffffffffffffffffffffff021916908373ffffffffffffffffffffffffffffffffffffffff160217905550506003816002815181106102a357fe5b602002602001015190806001815401808255809150509060018203906000526020600020016000909192909190916101000a81548173ffffffffffffffffffffffffffffffffffffffff021916908373ffffffffffffffffffffffffffffffffffffffff1602179055505060038160038151811061031d57fe5b602002602001015190806001815401808255809150509060018203906000526020600020016000909192909190916101000a81548173ffffffffffffffffffffffffffffffffffffffff021916908373ffffffffffffffffffffffffffffffffffffffff1602179055505060038160048151811061039757fe5b602002602001015190806001815401808255809150509060018203906000526020600020016000909192909190916101000a81548173ffffffffffffffffffffffffffffffffffffffff021916908373ffffffffffffffffffffffffffffffffffffffff1602179055505060038160058151811061041157fe5b602002602001015190806001815401808255809150509060018203906000526020600020016000909192909190916101000a81548173ffffffffffffffffffffffffffffffffffffffff021916908373ffffffffffffffffffffffffffffffffffffffff1602179055505060038160068151811061048b57fe5b602002602001015190806001815401808255809150509060018203906000526020600020016000909192909190916101000a81548173ffffffffffffffffffffffffffffffffffffffff021916908373ffffffffffffffffffffffffffffffffffffffff1602179055505060038160078151811061050557fe5b602002602001015190806001815401808255809150509060018203906000526020600020016000909192909190916101000a81548173ffffffffffffffffffffffffffffffffffffffff021916908373ffffffffffffffffffffffffffffffffffffffff1602179055505060038160088151811061057f57fe5b602002602001015190806001815401808255809150509060018203906000526020600020016000909192909190916101000a81548173ffffffffffffffffffffffffffffffffffffffff021916908373ffffffffffffffffffffffffffffffffffffffff160217905550506003816009815181106105f957fe5b602002602001015190806001815401808255809150509060018203906000526020600020016000909192909190916101000a81548173ffffffffffffffffffffffffffffffffffffffff021916908373ffffffffffffffffffffffffffffffffffffffff16021790555050600381600a8151811061067357fe5b602002602001015190806001815401808255809150509060018203906000526020600020016000909192909190916101000a81548173ffffffffffffffffffffffffffffffffffffffff021916908373ffffffffffffffffffffffffffffffffffffffff16021790555050600381600b815181106106ed57fe5b602002602001015190806001815401808255809150509060018203906000526020600020016000909192909190916101000a81548173ffffffffffffffffffffffffffffffffffffffff021916908373ffffffffffffffffffffffffffffffffffffffff16021790555050600381600c8151811061076757fe5b602002602001015190806001815401808255809150509060018203906000526020600020016000909192909190916101000a81548173ffffffffffffffffffffffffffffffffffffffff021916908373ffffffffffffffffffffffffffffffffffffffff160217905550506107e06107e860201b60201c565b505050610a72565b60008090505b600380549050811015610a6f5760006003828154811061080a57fe5b9060005260206000200160009054906101000a900473ffffffffffffffffffffffffffffffffffffffff1690508073ffffffffffffffffffffffffffffffffffffffff1663a4e0928a6000809054906101000a900473ffffffffffffffffffffffffffffffffffffffff166040518263ffffffff1660e01b8152600401808273ffffffffffffffffffffffffffffffffffffffff1673ffffffffffffffffffffffffffffffffffffffff168152602001915050600060405180830381600087803b1580156108d757600080fd5b505af11580156108eb573d6000803e3d6000fd5b505050508073ffffffffffffffffffffffffffffffffffffffff16639d99c3e9600160009054906101000a900473ffffffffffffffffffffffffffffffffffffffff166040518263ffffffff1660e01b8152600401808273ffffffffffffffffffffffffffffffffffffffff1673ffffffffffffffffffffffffffffffffffffffff168152602001915050600060405180830381600087803b15801561099057600080fd5b505af11580156109a4573d6000803e3d6000fd5b505050508073ffffffffffffffffffffffffffffffffffffffff166392152f18600260009054906101000a900473ffffffffffffffffffffffffffffffffffffffff166040518263ffffffff1660e01b8152600401808273ffffffffffffffffffffffffffffffffffffffff1673ffffffffffffffffffffffffffffffffffffffff168152602001915050600060405180830381600087803b158015610a4957600080fd5b505af1158015610a5d573d6000803e3d6000fd5b505050505080806001019150506107ee565b50565b61027f80610a816000396000f3fe608060405234801561001057600080fd5b506004361061004c5760003560e01c80634169467d14610051578063d6a2d8071461009b578063d7c6921514610109578063efdee94f14610153575b600080fd5b61005961019d565b604051808273ffffffffffffffffffffffffffffffffffffffff1673ffffffffffffffffffffffffffffffffffffffff16815260200191505060405180910390f35b6100c7600480360360208110156100b157600080fd5b81019080803590602001909291905050506101c2565b604051808273ffffffffffffffffffffffffffffffffffffffff1673ffffffffffffffffffffffffffffffffffffffff16815260200191505060405180910390f35b6101116101fe565b604051808273ffffffffffffffffffffffffffffffffffffffff1673ffffffffffffffffffffffffffffffffffffffff16815260200191505060405180910390f35b61015b610224565b604051808273ffffffffffffffffffffffffffffffffffffffff1673ffffffffffffffffffffffffffffffffffffffff16815260200191505060405180910390f35b6000809054906101000a900473ffffffffffffffffffffffffffffffffffffffff1681565b600381815481106101cf57fe5b906000526020600020016000915054906101000a900473ffffffffffffffffffffffffffffffffffffffff1681565b600160009054906101000a900473ffffffffffffffffffffffffffffffffffffffff1681565b600260009054906101000a900473ffffffffffffffffffffffffffffffffffffffff168156fea265627a7a72315820efa65c2597042073ea444059c7310d1d671adac4d8b48ab5b99a47ac1cdabb8a64736f6c63430005100032",
  "source": "\npragma solidity ^0.5.0;\n\nimport './Parent Contracts/BaseTokenContract.sol';\n\nimport './ERC-20 Tokens/Token.sol';\nimport './ERC-20 Tokens/NRM_Token.sol';\nimport './ERC-20 Tokens/NAR_Token.sol';\nimport './ERC-20 Tokens/ADN_Token.sol';\nimport './ERC-20 Tokens/WHN_Token.sol';\nimport './ERC-20 Tokens/NKF_Token.sol';\nimport './ERC-20 Tokens/CIH_Token.sol';\nimport './ERC-20 Tokens/NSR_Token.sol';\nimport './ERC-20 Tokens/JN_Token.sol';\nimport './ERC-20 Tokens/NCN_Token.sol';\nimport './ERC-20 Tokens/EHN_Token.sol';\nimport './ERC-20 Tokens/JRN_Token.sol';\nimport './ERC-20 Tokens/JLN_Token.sol';\n\ncontract ContractRegistry {\n\n    address public flashLoanAddress;\n    address public ethSwapAddress;\n    address public deployerAddress;\n    BaseTokenContract[] public childrenArray;\n\n    // Using Polymorphism. Instantiate child, set it to parent type.\n    constructor(address _flashLoanAddress, address _ethSwapAddress, \n        address[] memory _tokens) public \n    {\n        flashLoanAddress = _flashLoanAddress;   \n        ethSwapAddress = _ethSwapAddress;\n        deployerAddress = msg.sender;\n\n        childrenArray.push(Token(_tokens[0]));\n        childrenArray.push(NRM_Token(_tokens[1]));\n        childrenArray.push(NAR_Token(_tokens[2]));\n        childrenArray.push(ADN_Token(_tokens[3]));\n        childrenArray.push(WHN_Token(_tokens[4]));\n        childrenArray.push(NKF_Token(_tokens[5]));\n        childrenArray.push(CIH_Token(_tokens[6]));\n        childrenArray.push(NSR_Token(_tokens[7]));\n        childrenArray.push(JN_Token(_tokens[8]));\n        childrenArray.push(NCN_Token(_tokens[9]));\n        childrenArray.push(EHN_Token(_tokens[10]));\n        childrenArray.push(JRN_Token(_tokens[11]));\n        childrenArray.push(JLN_Token(_tokens[12]));\n\n        setAddressesForTokens();\n    }\n\n    function setAddressesForTokens() internal\n    {\n        for (uint i = 0; i < childrenArray.length; i++) \n        {\n            BaseTokenContract child = childrenArray[i];\n            child.setFlashLoanAddress(flashLoanAddress);\n            child.setEthSwapAddress(ethSwapAddress);\n            child.setDeployerAddress(deployerAddress);\n        }\n    }\n\n}\n",
  "sourcePath": "/Users/Nelson/Desktop/DEX-web-app/src/contracts/ContractRegistry.sol",
  "compiler": {
    "name": "solc",
    "version": "0.5.16+commit.9c3226ce.Emscripten.clang"
  },
  "schemaVersion": "3.4.14",
  "updatedAt": "2023-07-20T22:56:25.998Z",
  "networkType": "ethereum",
  "devdoc": {
    "methods": {}
  },
  "userdoc": {
    "methods": {}
  }
}