{
  "contractName": "EthSwap",
  "abi": [
    {
      "inputs": [
        {
          "internalType": "address[]",
          "name": "_tokens",
          "type": "address[]"
        }
      ],
      "payable": false,
      "stateMutability": "nonpayable",
      "type": "constructor"
    },
    {
      "anonymous": false,
      "inputs": [
        {
          "indexed": false,
          "internalType": "string",
          "name": "message",
          "type": "string"
        }
      ],
      "name": "LogMessage",
      "type": "event"
    },
    {
      "anonymous": false,
      "inputs": [
        {
          "indexed": false,
          "internalType": "uint256",
          "name": "",
          "type": "uint256"
        },
        {
          "indexed": false,
          "internalType": "string",
          "name": "",
          "type": "string"
        }
      ],
      "name": "LogMessage2",
      "type": "event"
    },
    {
      "anonymous": false,
      "inputs": [
        {
          "indexed": false,
          "internalType": "address",
          "name": "account",
          "type": "address"
        },
        {
          "indexed": false,
          "internalType": "address",
          "name": "token",
          "type": "address"
        },
        {
          "indexed": false,
          "internalType": "uint256",
          "name": "amount",
          "type": "uint256"
        },
        {
          "indexed": false,
          "internalType": "uint256",
          "name": "rate",
          "type": "uint256"
        }
      ],
      "name": "TokensPurchased",
      "type": "event"
    },
    {
      "anonymous": false,
      "inputs": [
        {
          "indexed": false,
          "internalType": "address",
          "name": "account",
          "type": "address"
        },
        {
          "indexed": false,
          "internalType": "address",
          "name": "token",
          "type": "address"
        },
        {
          "indexed": false,
          "internalType": "uint256",
          "name": "amount",
          "type": "uint256"
        },
        {
          "indexed": false,
          "internalType": "uint256",
          "name": "rate",
          "type": "uint256"
        }
      ],
      "name": "TokensSold",
      "type": "event"
    },
    {
      "constant": true,
      "inputs": [],
      "name": "name",
      "outputs": [
        {
          "internalType": "string",
          "name": "",
          "type": "string"
        }
      ],
      "payable": false,
      "stateMutability": "view",
      "type": "function"
    },
    {
      "constant": true,
      "inputs": [
        {
          "internalType": "string",
          "name": "",
          "type": "string"
        }
      ],
      "name": "symbolToInstanceMapping",
      "outputs": [
        {
          "internalType": "contract TokenInterface",
          "name": "",
          "type": "address"
        }
      ],
      "payable": false,
      "stateMutability": "view",
      "type": "function"
    },
    {
      "constant": false,
      "inputs": [
        {
          "internalType": "string",
          "name": "currentToken",
          "type": "string"
        }
      ],
      "name": "buyTokens",
      "outputs": [],
      "payable": true,
      "stateMutability": "payable",
      "type": "function"
    },
    {
      "constant": false,
      "inputs": [
        {
          "internalType": "uint256",
          "name": "_amount",
          "type": "uint256"
        },
        {
          "internalType": "string",
          "name": "currentToken",
          "type": "string"
        }
      ],
      "name": "sellTokens",
      "outputs": [],
      "payable": false,
      "stateMutability": "nonpayable",
      "type": "function"
    }
  ],
  "bytecode": "0x60806040526040518060400160405280601981526020017f4e656c736f6e277320457468537761702045786368616e676500000000000000815250600090805190602001906200005192919062000393565b503480156200005f57600080fd5b50604051620011e3380380620011e3833981810160405260208110156200008557600080fd5b8101908080516040519392919084640100000000821115620000a657600080fd5b83820191506020820185811115620000bd57600080fd5b8251866020820283011164010000000082111715620000db57600080fd5b8083526020830192505050908051906020019060200280838360005b8381101562000114578082015181840152602081019050620000f7565b505050509050016040525050508060019080519060200190620001399291906200041a565b5060008090505b6001805490508110156200038b576000600182815481106200015e57fe5b9060005260206000200160009054906101000a900473ffffffffffffffffffffffffffffffffffffffff1690508060028273ffffffffffffffffffffffffffffffffffffffff1663150704016040518163ffffffff1660e01b815260040160006040518083038186803b158015620001d557600080fd5b505afa158015620001ea573d6000803e3d6000fd5b505050506040513d6000823e3d601f19601f8201168201806040525060208110156200021557600080fd5b81019080805160405193929190846401000000008211156200023657600080fd5b838201915060208201858111156200024d57600080fd5b82518660018202830111640100000000821117156200026b57600080fd5b8083526020830192505050908051906020019080838360005b83811015620002a157808201518184015260208101905062000284565b50505050905090810190601f168015620002cf5780820380516001836020036101000a031916815260200191505b506040525050506040518082805190602001908083835b602083106200030b5780518252602082019150602081019050602083039250620002e6565b6001836020036101000a038019825116818451168082178552505050505050905001915050908152602001604051809103902060006101000a81548173ffffffffffffffffffffffffffffffffffffffff021916908373ffffffffffffffffffffffffffffffffffffffff16021790555050808060010191505062000140565b505062000517565b828054600181600116156101000203166002900490600052602060002090601f016020900481019282601f10620003d657805160ff191683800117855562000407565b8280016001018555821562000407579182015b8281111562000406578251825591602001919060010190620003e9565b5b509050620004169190620004a9565b5090565b82805482825590600052602060002090810192821562000496579160200282015b82811115620004955782518260006101000a81548173ffffffffffffffffffffffffffffffffffffffff021916908373ffffffffffffffffffffffffffffffffffffffff160217905550916020019190600101906200043b565b5b509050620004a59190620004d1565b5090565b620004ce91905b80821115620004ca576000816000905550600101620004b0565b5090565b90565b6200051491905b808211156200051057600081816101000a81549073ffffffffffffffffffffffffffffffffffffffff021916905550600101620004d8565b5090565b90565b610cbc80620005276000396000f3fe60806040526004361061003f5760003560e01c806306fdde03146100445780630d69e1d1146100d45780636f85e62c146101dc578063b756ad7814610297575b600080fd5b34801561005057600080fd5b50610059610369565b6040518080602001828103825283818151815260200191508051906020019080838360005b8381101561009957808201518184015260208101905061007e565b50505050905090810190601f1680156100c65780820380516001836020036101000a031916815260200191505b509250505060405180910390f35b3480156100e057600080fd5b5061019a600480360360208110156100f757600080fd5b810190808035906020019064010000000081111561011457600080fd5b82018360208201111561012657600080fd5b8035906020019184600183028401116401000000008311171561014857600080fd5b91908080601f016020809104026020016040519081016040528093929190818152602001838380828437600081840152601f19601f820116905080830192505050505050509192919290505050610407565b604051808273ffffffffffffffffffffffffffffffffffffffff1673ffffffffffffffffffffffffffffffffffffffff16815260200191505060405180910390f35b610295600480360360208110156101f257600080fd5b810190808035906020019064010000000081111561020f57600080fd5b82018360208201111561022157600080fd5b8035906020019184600183028401116401000000008311171561024357600080fd5b91908080601f016020809104026020016040519081016040528093929190818152602001838380828437600081840152601f19601f820116905080830192505050505050509192919290505050610450565b005b3480156102a357600080fd5b50610367600480360360408110156102ba57600080fd5b8101908080359060200190929190803590602001906401000000008111156102e157600080fd5b8201836020820111156102f357600080fd5b8035906020019184600183028401116401000000008311171561031557600080fd5b91908080601f016020809104026020016040519081016040528093929190818152602001838380828437600081840152601f19601f820116905080830192505050505050509192919290505050610818565b005b60008054600181600116156101000203166002900480601f0160208091040260200160405190810160405280929190818152602001828054600181600116156101000203166002900480156103ff5780601f106103d4576101008083540402835291602001916103ff565b820191906000526020600020905b8154815290600101906020018083116103e257829003601f168201915b505050505081565b6002818051602081018201805184825260208301602085012081835280955050505050506000915054906101000a900473ffffffffffffffffffffffffffffffffffffffff1681565b60006002826040518082805190602001908083835b602083106104885780518252602082019150602081019050602083039250610465565b6001836020036101000a038019825116818451168082178552505050505050905001915050908152602001604051809103902060009054906101000a900473ffffffffffffffffffffffffffffffffffffffff16905060008173ffffffffffffffffffffffffffffffffffffffff1663679aefce6040518163ffffffff1660e01b815260040160206040518083038186803b15801561052657600080fd5b505afa15801561053a573d6000803e3d6000fd5b505050506040513d602081101561055057600080fd5b810190808051906020019092919050505034029050808273ffffffffffffffffffffffffffffffffffffffff166370a08231306040518263ffffffff1660e01b8152600401808273ffffffffffffffffffffffffffffffffffffffff1673ffffffffffffffffffffffffffffffffffffffff16815260200191505060206040518083038186803b1580156105e357600080fd5b505afa1580156105f7573d6000803e3d6000fd5b505050506040513d602081101561060d57600080fd5b8101908080519060200190929190505050101561062957600080fd5b8173ffffffffffffffffffffffffffffffffffffffff1663a9059cbb33836040518363ffffffff1660e01b8152600401808373ffffffffffffffffffffffffffffffffffffffff1673ffffffffffffffffffffffffffffffffffffffff16815260200182815260200192505050602060405180830381600087803b1580156106b057600080fd5b505af11580156106c4573d6000803e3d6000fd5b505050506040513d60208110156106da57600080fd5b8101908080519060200190929190505050507f6faf93231a456e552dbc9961f58d9713ee4f2e69d15f1975b050ef0911053a7b3383838573ffffffffffffffffffffffffffffffffffffffff1663679aefce6040518163ffffffff1660e01b815260040160206040518083038186803b15801561075657600080fd5b505afa15801561076a573d6000803e3d6000fd5b505050506040513d602081101561078057600080fd5b8101908080519060200190929190505050604051808573ffffffffffffffffffffffffffffffffffffffff1673ffffffffffffffffffffffffffffffffffffffff1681526020018473ffffffffffffffffffffffffffffffffffffffff1673ffffffffffffffffffffffffffffffffffffffff16815260200183815260200182815260200194505050505060405180910390a1505050565b60006002826040518082805190602001908083835b60208310610850578051825260208201915060208101905060208303925061082d565b6001836020036101000a038019825116818451168082178552505050505050905001915050908152602001604051809103902060009054906101000a900473ffffffffffffffffffffffffffffffffffffffff169050828173ffffffffffffffffffffffffffffffffffffffff166370a08231336040518263ffffffff1660e01b8152600401808273ffffffffffffffffffffffffffffffffffffffff1673ffffffffffffffffffffffffffffffffffffffff16815260200191505060206040518083038186803b15801561092457600080fd5b505afa158015610938573d6000803e3d6000fd5b505050506040513d602081101561094e57600080fd5b8101908080519060200190929190505050101561096a57600080fd5b60008173ffffffffffffffffffffffffffffffffffffffff1663679aefce6040518163ffffffff1660e01b815260040160206040518083038186803b1580156109b257600080fd5b505afa1580156109c6573d6000803e3d6000fd5b505050506040513d60208110156109dc57600080fd5b810190808051906020019092919050505084816109f557fe5b049050803073ffffffffffffffffffffffffffffffffffffffff16311015610a1c57600080fd5b8173ffffffffffffffffffffffffffffffffffffffff166323b872dd3330876040518463ffffffff1660e01b8152600401808473ffffffffffffffffffffffffffffffffffffffff1673ffffffffffffffffffffffffffffffffffffffff1681526020018373ffffffffffffffffffffffffffffffffffffffff1673ffffffffffffffffffffffffffffffffffffffff1681526020018281526020019350505050602060405180830381600087803b158015610ad757600080fd5b505af1158015610aeb573d6000803e3d6000fd5b505050506040513d6020811015610b0157600080fd5b8101908080519060200190929190505050503373ffffffffffffffffffffffffffffffffffffffff166108fc829081150290604051600060405180830381858888f19350505050158015610b59573d6000803e3d6000fd5b507f697c42d55a5e1fed3f464ec6f38b32546a0bd368dc8068b065c67566d73f32903383868573ffffffffffffffffffffffffffffffffffffffff1663679aefce6040518163ffffffff1660e01b815260040160206040518083038186803b158015610bc457600080fd5b505afa158015610bd8573d6000803e3d6000fd5b505050506040513d6020811015610bee57600080fd5b8101908080519060200190929190505050604051808573ffffffffffffffffffffffffffffffffffffffff1673ffffffffffffffffffffffffffffffffffffffff1681526020018473ffffffffffffffffffffffffffffffffffffffff1673ffffffffffffffffffffffffffffffffffffffff16815260200183815260200182815260200194505050505060405180910390a15050505056fea265627a7a72315820d62305c803b64277da8a2b04f2aa8963b5e1e09023c0f8d9f2d0863f65e7674064736f6c63430005100032",
  "source": "pragma solidity ^0.5.0;\n\nimport './Token_Interface.sol';\nimport './Token.sol';\nimport './NRM_Token.sol';\nimport './NAR_Token.sol';\nimport './ADN_Token.sol';\nimport './WHN_Token.sol';\nimport './NKF_Token.sol';\nimport './CIH_Token.sol';\nimport './NSR_Token.sol';\nimport './JN_Token.sol';\nimport './NCN_Token.sol';\nimport './EHN_Token.sol';\nimport './JRN_Token.sol';\nimport './JLN_Token.sol';\n\ncontract EthSwap {\n\n\tstring public name = \"Nelson's EthSwap Exchange\";\n\n\t// Initialize an array of token addresses.\n\taddress[] private tokens;\n\n\n\tevent LogMessage(string message);\n\tevent LogMessage2(uint, string);\n\n\tevent TokensPurchased(\n\t\taddress account,\n\t\taddress token,\n\t\tuint amount,\n\t\tuint rate\n\t);\n\tevent TokensSold(\n\t\taddress account,\n\t\taddress token,\n\t\tuint amount,\n\t\tuint rate\n\t);\n\n\tmapping(string => TokenInterface) public symbolToInstanceMapping;\n\n\tconstructor(address[] memory _tokens) public {\n\t\t\n\t\ttokens = _tokens;\n\n        for (uint i = 0; i < tokens.length; i++) {\n        \t// Create an instance of type TokenInterface using the address\n            TokenInterface tokenInstance = TokenInterface(tokens[i]);\n            symbolToInstanceMapping[tokenInstance.getSymbol()] = tokenInstance;\n        }\n\t}\n\n\tfunction buyTokens(string memory currentToken) public payable {\n\n\t\t// Create our token instance to be of the same contract the currentToken specifies\n        TokenInterface tokenInstance = symbolToInstanceMapping[currentToken];\n\n        // (tokenAmount you get) = (Amount of ether you'll give) * (Rate of that token)\n\t\tuint tokenAmount = msg.value * tokenInstance.getRate();\n\n\t\t// Make sure our exchange has sufficient funds.\n\t\trequire(tokenInstance.balanceOf(address(this)) >= tokenAmount);\n\n\t\t// Transfer tokens from Exchange to User's Account.\n\t\ttokenInstance.transfer(msg.sender, tokenAmount);\n\n\t\temit TokensPurchased(msg.sender, address(tokenInstance), tokenAmount, tokenInstance.getRate());\n\t}\n\n\n\tfunction sellTokens(uint _amount, string memory currentToken) public {\n\n\t\t// Create our token instance to be of the same contract the currentToken specifies\n        TokenInterface tokenInstance = symbolToInstanceMapping[currentToken];\n\n\t\t// Make sure user account has enough tokens.\n\t\trequire(tokenInstance.balanceOf(msg.sender) >= _amount);\n\n        // (etherAmount you get) = (Amount of token you give) / (Rate of that token)\n\t\tuint etherAmount = _amount / tokenInstance.getRate();\n\n\n\t\t// Confirm exchange has enough Ether to give (not \"balanceOf\": that's for tokens)\n\t\trequire(address(this).balance >= etherAmount);\n\n\t\t// User approved Exchange to be the spender: allowance[Ganache user][spender] = amount.   \n\t\t// So, EthSwap the makes function call to allow tokens to transfer from user to itself.\n\t\ttokenInstance.transferFrom(msg.sender, address(this), _amount);\n\n\t\t// This transfer is a built in Solidity function that transfers Eth (Wei)\n\t\t// from the contract it's in to the msg.sender account.\n\t\tmsg.sender.transfer(etherAmount);\n\n\t\temit TokensSold(msg.sender, address(tokenInstance), _amount, tokenInstance.getRate());\n\t}\n}\n\n\n\n\n\n\n\n\n\n",
  "sourcePath": "/Users/Nelson/Desktop/DEX-web-app/src/contracts/Eth_Swap.sol",
  "compiler": {
    "name": "solc",
    "version": "0.5.16+commit.9c3226ce.Emscripten.clang"
  },
  "schemaVersion": "3.4.14",
  "updatedAt": "2023-06-20T23:05:02.136Z",
  "networkType": "ethereum",
  "devdoc": {
    "methods": {}
  },
  "userdoc": {
    "methods": {}
  }
}