{
  "contractName": "EthSwap",
  "abi": [
    {
      "inputs": [
        {
          "internalType": "address[]",
          "name": "_tokens",
          "type": "address[]"
        }
      ],
      "payable": false,
      "stateMutability": "nonpayable",
      "type": "constructor"
    },
    {
      "anonymous": false,
      "inputs": [
        {
          "indexed": false,
          "internalType": "string",
          "name": "message",
          "type": "string"
        }
      ],
      "name": "LogMessage",
      "type": "event"
    },
    {
      "anonymous": false,
      "inputs": [
        {
          "indexed": false,
          "internalType": "uint256",
          "name": "",
          "type": "uint256"
        },
        {
          "indexed": false,
          "internalType": "string",
          "name": "",
          "type": "string"
        }
      ],
      "name": "LogMessage2",
      "type": "event"
    },
    {
      "anonymous": false,
      "inputs": [
        {
          "indexed": false,
          "internalType": "address",
          "name": "account",
          "type": "address"
        },
        {
          "indexed": false,
          "internalType": "address",
          "name": "token",
          "type": "address"
        },
        {
          "indexed": false,
          "internalType": "uint256",
          "name": "amount",
          "type": "uint256"
        },
        {
          "indexed": false,
          "internalType": "uint256",
          "name": "rate",
          "type": "uint256"
        }
      ],
      "name": "TokensPurchased",
      "type": "event"
    },
    {
      "anonymous": false,
      "inputs": [
        {
          "indexed": false,
          "internalType": "address",
          "name": "account",
          "type": "address"
        },
        {
          "indexed": false,
          "internalType": "address",
          "name": "token",
          "type": "address"
        },
        {
          "indexed": false,
          "internalType": "uint256",
          "name": "amount",
          "type": "uint256"
        },
        {
          "indexed": false,
          "internalType": "uint256",
          "name": "rate",
          "type": "uint256"
        }
      ],
      "name": "TokensSold",
      "type": "event"
    },
    {
      "constant": true,
      "inputs": [],
      "name": "name",
      "outputs": [
        {
          "internalType": "string",
          "name": "",
          "type": "string"
        }
      ],
      "payable": false,
      "stateMutability": "view",
      "type": "function"
    },
    {
      "constant": true,
      "inputs": [
        {
          "internalType": "string",
          "name": "",
          "type": "string"
        }
      ],
      "name": "symbolToInstanceMapping",
      "outputs": [
        {
          "internalType": "contract TokenInterface",
          "name": "",
          "type": "address"
        }
      ],
      "payable": false,
      "stateMutability": "view",
      "type": "function"
    },
    {
      "constant": true,
      "inputs": [
        {
          "internalType": "string",
          "name": "symbol",
          "type": "string"
        }
      ],
      "name": "getTokenInstance",
      "outputs": [
        {
          "internalType": "contract TokenInterface",
          "name": "",
          "type": "address"
        }
      ],
      "payable": false,
      "stateMutability": "view",
      "type": "function"
    },
    {
      "constant": false,
      "inputs": [
        {
          "internalType": "string",
          "name": "currentToken",
          "type": "string"
        }
      ],
      "name": "buyTokens",
      "outputs": [],
      "payable": true,
      "stateMutability": "payable",
      "type": "function"
    },
    {
      "constant": false,
      "inputs": [
        {
          "internalType": "uint256",
          "name": "_amount",
          "type": "uint256"
        },
        {
          "internalType": "string",
          "name": "currentToken",
          "type": "string"
        }
      ],
      "name": "sellTokens",
      "outputs": [],
      "payable": false,
      "stateMutability": "nonpayable",
      "type": "function"
    }
  ],
  "bytecode": "0x60806040526040518060400160405280601981526020017f4e656c736f6e277320457468537761702045786368616e676500000000000000815250600090805190602001906200005192919062000393565b503480156200005f57600080fd5b506040516200130638038062001306833981810160405260208110156200008557600080fd5b8101908080516040519392919084640100000000821115620000a657600080fd5b83820191506020820185811115620000bd57600080fd5b8251866020820283011164010000000082111715620000db57600080fd5b8083526020830192505050908051906020019060200280838360005b8381101562000114578082015181840152602081019050620000f7565b505050509050016040525050508060019080519060200190620001399291906200041a565b5060008090505b6001805490508110156200038b576000600182815481106200015e57fe5b9060005260206000200160009054906101000a900473ffffffffffffffffffffffffffffffffffffffff1690508060028273ffffffffffffffffffffffffffffffffffffffff1663150704016040518163ffffffff1660e01b815260040160006040518083038186803b158015620001d557600080fd5b505afa158015620001ea573d6000803e3d6000fd5b505050506040513d6000823e3d601f19601f8201168201806040525060208110156200021557600080fd5b81019080805160405193929190846401000000008211156200023657600080fd5b838201915060208201858111156200024d57600080fd5b82518660018202830111640100000000821117156200026b57600080fd5b8083526020830192505050908051906020019080838360005b83811015620002a157808201518184015260208101905062000284565b50505050905090810190601f168015620002cf5780820380516001836020036101000a031916815260200191505b506040525050506040518082805190602001908083835b602083106200030b5780518252602082019150602081019050602083039250620002e6565b6001836020036101000a038019825116818451168082178552505050505050905001915050908152602001604051809103902060006101000a81548173ffffffffffffffffffffffffffffffffffffffff021916908373ffffffffffffffffffffffffffffffffffffffff16021790555050808060010191505062000140565b505062000517565b828054600181600116156101000203166002900490600052602060002090601f016020900481019282601f10620003d657805160ff191683800117855562000407565b8280016001018555821562000407579182015b8281111562000406578251825591602001919060010190620003e9565b5b509050620004169190620004a9565b5090565b82805482825590600052602060002090810192821562000496579160200282015b82811115620004955782518260006101000a81548173ffffffffffffffffffffffffffffffffffffffff021916908373ffffffffffffffffffffffffffffffffffffffff160217905550916020019190600101906200043b565b5b509050620004a59190620004d1565b5090565b620004ce91905b80821115620004ca576000816000905550600101620004b0565b5090565b90565b6200051491905b808211156200051057600081816101000a81549073ffffffffffffffffffffffffffffffffffffffff021916905550600101620004d8565b5090565b90565b610ddf80620005276000396000f3fe60806040526004361061004a5760003560e01c806306fdde031461004f5780630b5576b3146100df5780630d69e1d1146101a55780636f85e62c146102ad578063b756ad7814610368575b600080fd5b34801561005b57600080fd5b5061006461043a565b6040518080602001828103825283818151815260200191508051906020019080838360005b838110156100a4578082015181840152602081019050610089565b50505050905090810190601f1680156100d15780820380516001836020036101000a031916815260200191505b509250505060405180910390f35b3480156100eb57600080fd5b506101636004803603602081101561010257600080fd5b810190808035906020019064010000000081111561011f57600080fd5b82018360208201111561013157600080fd5b8035906020019184600183028401116401000000008311171561015357600080fd5b90919293919293905050506104d8565b604051808273ffffffffffffffffffffffffffffffffffffffff1673ffffffffffffffffffffffffffffffffffffffff16815260200191505060405180910390f35b3480156101b157600080fd5b5061026b600480360360208110156101c857600080fd5b81019080803590602001906401000000008111156101e557600080fd5b8201836020820111156101f757600080fd5b8035906020019184600183028401116401000000008311171561021957600080fd5b91908080601f016020809104026020016040519081016040528093929190818152602001838380828437600081840152601f19601f82011690508083019250505050505050919291929050505061052a565b604051808273ffffffffffffffffffffffffffffffffffffffff1673ffffffffffffffffffffffffffffffffffffffff16815260200191505060405180910390f35b610366600480360360208110156102c357600080fd5b81019080803590602001906401000000008111156102e057600080fd5b8201836020820111156102f257600080fd5b8035906020019184600183028401116401000000008311171561031457600080fd5b91908080601f016020809104026020016040519081016040528093929190818152602001838380828437600081840152601f19601f820116905080830192505050505050509192919290505050610573565b005b34801561037457600080fd5b506104386004803603604081101561038b57600080fd5b8101908080359060200190929190803590602001906401000000008111156103b257600080fd5b8201836020820111156103c457600080fd5b803590602001918460018302840111640100000000831117156103e657600080fd5b91908080601f016020809104026020016040519081016040528093929190818152602001838380828437600081840152601f19601f82011690508083019250505050505050919291929050505061093b565b005b60008054600181600116156101000203166002900480601f0160208091040260200160405190810160405280929190818152602001828054600181600116156101000203166002900480156104d05780601f106104a5576101008083540402835291602001916104d0565b820191906000526020600020905b8154815290600101906020018083116104b357829003601f168201915b505050505081565b600060028383604051808383808284378083019250505092505050908152602001604051809103902060009054906101000a900473ffffffffffffffffffffffffffffffffffffffff16905092915050565b6002818051602081018201805184825260208301602085012081835280955050505050506000915054906101000a900473ffffffffffffffffffffffffffffffffffffffff1681565b60006002826040518082805190602001908083835b602083106105ab5780518252602082019150602081019050602083039250610588565b6001836020036101000a038019825116818451168082178552505050505050905001915050908152602001604051809103902060009054906101000a900473ffffffffffffffffffffffffffffffffffffffff16905060008173ffffffffffffffffffffffffffffffffffffffff1663679aefce6040518163ffffffff1660e01b815260040160206040518083038186803b15801561064957600080fd5b505afa15801561065d573d6000803e3d6000fd5b505050506040513d602081101561067357600080fd5b810190808051906020019092919050505034029050808273ffffffffffffffffffffffffffffffffffffffff166370a08231306040518263ffffffff1660e01b8152600401808273ffffffffffffffffffffffffffffffffffffffff1673ffffffffffffffffffffffffffffffffffffffff16815260200191505060206040518083038186803b15801561070657600080fd5b505afa15801561071a573d6000803e3d6000fd5b505050506040513d602081101561073057600080fd5b8101908080519060200190929190505050101561074c57600080fd5b8173ffffffffffffffffffffffffffffffffffffffff1663a9059cbb33836040518363ffffffff1660e01b8152600401808373ffffffffffffffffffffffffffffffffffffffff1673ffffffffffffffffffffffffffffffffffffffff16815260200182815260200192505050602060405180830381600087803b1580156107d357600080fd5b505af11580156107e7573d6000803e3d6000fd5b505050506040513d60208110156107fd57600080fd5b8101908080519060200190929190505050507f6faf93231a456e552dbc9961f58d9713ee4f2e69d15f1975b050ef0911053a7b3383838573ffffffffffffffffffffffffffffffffffffffff1663679aefce6040518163ffffffff1660e01b815260040160206040518083038186803b15801561087957600080fd5b505afa15801561088d573d6000803e3d6000fd5b505050506040513d60208110156108a357600080fd5b8101908080519060200190929190505050604051808573ffffffffffffffffffffffffffffffffffffffff1673ffffffffffffffffffffffffffffffffffffffff1681526020018473ffffffffffffffffffffffffffffffffffffffff1673ffffffffffffffffffffffffffffffffffffffff16815260200183815260200182815260200194505050505060405180910390a1505050565b60006002826040518082805190602001908083835b602083106109735780518252602082019150602081019050602083039250610950565b6001836020036101000a038019825116818451168082178552505050505050905001915050908152602001604051809103902060009054906101000a900473ffffffffffffffffffffffffffffffffffffffff169050828173ffffffffffffffffffffffffffffffffffffffff166370a08231336040518263ffffffff1660e01b8152600401808273ffffffffffffffffffffffffffffffffffffffff1673ffffffffffffffffffffffffffffffffffffffff16815260200191505060206040518083038186803b158015610a4757600080fd5b505afa158015610a5b573d6000803e3d6000fd5b505050506040513d6020811015610a7157600080fd5b81019080805190602001909291905050501015610a8d57600080fd5b60008173ffffffffffffffffffffffffffffffffffffffff1663679aefce6040518163ffffffff1660e01b815260040160206040518083038186803b158015610ad557600080fd5b505afa158015610ae9573d6000803e3d6000fd5b505050506040513d6020811015610aff57600080fd5b81019080805190602001909291905050508481610b1857fe5b049050803073ffffffffffffffffffffffffffffffffffffffff16311015610b3f57600080fd5b8173ffffffffffffffffffffffffffffffffffffffff166323b872dd3330876040518463ffffffff1660e01b8152600401808473ffffffffffffffffffffffffffffffffffffffff1673ffffffffffffffffffffffffffffffffffffffff1681526020018373ffffffffffffffffffffffffffffffffffffffff1673ffffffffffffffffffffffffffffffffffffffff1681526020018281526020019350505050602060405180830381600087803b158015610bfa57600080fd5b505af1158015610c0e573d6000803e3d6000fd5b505050506040513d6020811015610c2457600080fd5b8101908080519060200190929190505050503373ffffffffffffffffffffffffffffffffffffffff166108fc829081150290604051600060405180830381858888f19350505050158015610c7c573d6000803e3d6000fd5b507f697c42d55a5e1fed3f464ec6f38b32546a0bd368dc8068b065c67566d73f32903383868573ffffffffffffffffffffffffffffffffffffffff1663679aefce6040518163ffffffff1660e01b815260040160206040518083038186803b158015610ce757600080fd5b505afa158015610cfb573d6000803e3d6000fd5b505050506040513d6020811015610d1157600080fd5b8101908080519060200190929190505050604051808573ffffffffffffffffffffffffffffffffffffffff1673ffffffffffffffffffffffffffffffffffffffff1681526020018473ffffffffffffffffffffffffffffffffffffffff1673ffffffffffffffffffffffffffffffffffffffff16815260200183815260200182815260200194505050505060405180910390a15050505056fea265627a7a72315820baf1e4f88c4e352136dd1157bb02924ea2ea1d4f41bd8bbca73a8957d2cb033f64736f6c63430005100032",
  "source": "pragma solidity ^0.5.0;\n\nimport './Parent Contracts/Token_Interface.sol';\nimport './ERC-20 Tokens/Token.sol';\nimport './ERC-20 Tokens/NRM_Token.sol';\nimport './ERC-20 Tokens/NAR_Token.sol';\nimport './ERC-20 Tokens/ADN_Token.sol';\nimport './ERC-20 Tokens/WHN_Token.sol';\nimport './ERC-20 Tokens/NKF_Token.sol';\nimport './ERC-20 Tokens/CIH_Token.sol';\nimport './ERC-20 Tokens/NSR_Token.sol';\nimport './ERC-20 Tokens/JN_Token.sol';\nimport './ERC-20 Tokens/NCN_Token.sol';\nimport './ERC-20 Tokens/EHN_Token.sol';\nimport './ERC-20 Tokens/JRN_Token.sol';\nimport './ERC-20 Tokens/JLN_Token.sol';\n\ncontract EthSwap {\n\n\tstring public name = \"Nelson's EthSwap Exchange\";\n\n\t// Initialize an array of token addresses.\n\taddress[] private tokens;\n\n\n\tevent LogMessage(string message);\n\tevent LogMessage2(uint, string);\n\n\tevent TokensPurchased(\n\t\taddress account,\n\t\taddress token,\n\t\tuint amount,\n\t\tuint rate\n\t);\n\tevent TokensSold(\n\t\taddress account,\n\t\taddress token,\n\t\tuint amount,\n\t\tuint rate\n\t);\n\n\t// passing entire mappings in solidity are not easy.  They don't\n\t// provide direct access to their stored keys/values like arrays.\n\t// Not iterable go retrieve them all either.\n\tmapping(string => TokenInterface) public symbolToInstanceMapping;\n\n\n\tconstructor(address[] memory _tokens) public {\n\t\ttokens = _tokens;\n        for (uint i = 0; i < tokens.length; i++) {\n        \t\n        \t// Create an instance of type TokenInterface using the address\n            // Not quite polymorphism = Not creating instances of the derived\n            // children and using that, but using the address.\n            TokenInterface tokenInstance = TokenInterface(tokens[i]);\n            symbolToInstanceMapping[tokenInstance.getSymbol()] = tokenInstance;\n        }\n\t}\n\n\t// Getter function to retrieve the token instance for a given symbol\n    function getTokenInstance(string calldata symbol) external view returns (TokenInterface) {\n        return symbolToInstanceMapping[symbol];\n     }\n\n\t// NOTE: consider calldata, not memory.  since currentToken is read only, and \n\t// .. would save gas by not having to make a copy the parameter\n\tfunction buyTokens(string memory currentToken) public payable {\n\n\t\t// Create our token instance to be of the same contract the currentToken specifies\n        TokenInterface tokenInstance = symbolToInstanceMapping[currentToken];\n\n        // (tokenAmount you get) = (Amount of ether you'll give) * (Rate of that token)\n\t\tuint tokenAmount = msg.value * tokenInstance.getRate();\n\n\t\t// Make sure our exchange has sufficient funds.\n\t\trequire(tokenInstance.balanceOf(address(this)) >= tokenAmount);\n\n\t\t// Transfer tokens from Exchange to User's Account.\n\t\ttokenInstance.transfer(msg.sender, tokenAmount);\n\n\t\temit TokensPurchased(msg.sender, address(tokenInstance), tokenAmount, tokenInstance.getRate());\n\t}\n\n\n\tfunction sellTokens(uint _amount, string memory currentToken) public {\n\n\t\t// Create our token instance to be of the same contract the currentToken specifies\n        TokenInterface tokenInstance = symbolToInstanceMapping[currentToken];\n\n\t\t// Make sure user account has enough tokens.\n\t\trequire(tokenInstance.balanceOf(msg.sender) >= _amount);\n\n        // (etherAmount you get) = (Amount of token you give) / (Rate of that token)\n\t\tuint etherAmount = _amount / tokenInstance.getRate();\n\n\n\t\t// Confirm exchange has enough Ether to give (not \"balanceOf\": that's for tokens)\n\t\trequire(address(this).balance >= etherAmount);\n\n\t\t// User approved Exchange to be the spender: allowance[Ganache user][spender] = amount.   \n\t\t// So, EthSwap the makes function call to allow tokens to transfer from user to itself.\n\t\ttokenInstance.transferFrom(msg.sender, address(this), _amount);\n\n\t\t// This transfer is a built in Solidity function that transfers Eth (Wei)\n\t\t// from the contract it's in to the msg.sender account.\n\t\tmsg.sender.transfer(etherAmount);\n\n\t\temit TokensSold(msg.sender, address(tokenInstance), _amount, tokenInstance.getRate());\n\t}\n}\n\n\n\n\n\n\n\n\n\n",
  "sourcePath": "/Users/Nelson/Desktop/DEX-web-app/src/contracts/Eth_Swap.sol",
  "compiler": {
    "name": "solc",
    "version": "0.5.16+commit.9c3226ce.Emscripten.clang"
  },
  "schemaVersion": "3.4.14",
  "updatedAt": "2023-07-12T21:44:12.032Z",
  "networkType": "ethereum",
  "devdoc": {
    "methods": {}
  },
  "userdoc": {
    "methods": {}
  }
}