{
  "contractName": "FlashLoan",
  "abi": [
    {
      "inputs": [
        {
          "internalType": "address",
          "name": "exchange",
          "type": "address"
        }
      ],
      "payable": false,
      "stateMutability": "nonpayable",
      "type": "constructor"
    },
    {
      "anonymous": false,
      "inputs": [
        {
          "indexed": false,
          "internalType": "string",
          "name": "",
          "type": "string"
        }
      ],
      "name": "LogMessageA",
      "type": "event"
    },
    {
      "anonymous": false,
      "inputs": [
        {
          "indexed": false,
          "internalType": "contract TokenInterface",
          "name": "",
          "type": "address"
        },
        {
          "indexed": false,
          "internalType": "uint256",
          "name": "",
          "type": "uint256"
        }
      ],
      "name": "eventPostFlashLoan",
      "type": "event"
    },
    {
      "constant": true,
      "inputs": [],
      "name": "CONST",
      "outputs": [
        {
          "internalType": "uint256",
          "name": "",
          "type": "uint256"
        }
      ],
      "payable": false,
      "stateMutability": "view",
      "type": "function"
    },
    {
      "constant": true,
      "inputs": [],
      "name": "SCALE_FACTOR",
      "outputs": [
        {
          "internalType": "uint256",
          "name": "",
          "type": "uint256"
        }
      ],
      "payable": false,
      "stateMutability": "view",
      "type": "function"
    },
    {
      "constant": true,
      "inputs": [],
      "name": "WEI_SCALE",
      "outputs": [
        {
          "internalType": "uint256",
          "name": "",
          "type": "uint256"
        }
      ],
      "payable": false,
      "stateMutability": "view",
      "type": "function"
    },
    {
      "constant": true,
      "inputs": [],
      "name": "balanceAfter",
      "outputs": [
        {
          "internalType": "uint256",
          "name": "",
          "type": "uint256"
        }
      ],
      "payable": false,
      "stateMutability": "view",
      "type": "function"
    },
    {
      "constant": true,
      "inputs": [],
      "name": "balanceBefore",
      "outputs": [
        {
          "internalType": "uint256",
          "name": "",
          "type": "uint256"
        }
      ],
      "payable": false,
      "stateMutability": "view",
      "type": "function"
    },
    {
      "constant": true,
      "inputs": [],
      "name": "ethSwapInstance",
      "outputs": [
        {
          "internalType": "contract EthSwap",
          "name": "",
          "type": "address"
        }
      ],
      "payable": false,
      "stateMutability": "view",
      "type": "function"
    },
    {
      "constant": true,
      "inputs": [],
      "name": "ethSwapTokBal",
      "outputs": [
        {
          "internalType": "uint256",
          "name": "",
          "type": "uint256"
        }
      ],
      "payable": false,
      "stateMutability": "view",
      "type": "function"
    },
    {
      "constant": true,
      "inputs": [],
      "name": "fee",
      "outputs": [
        {
          "internalType": "uint256",
          "name": "",
          "type": "uint256"
        }
      ],
      "payable": false,
      "stateMutability": "view",
      "type": "function"
    },
    {
      "constant": true,
      "inputs": [],
      "name": "inversePercentOfSupply",
      "outputs": [
        {
          "internalType": "uint256",
          "name": "",
          "type": "uint256"
        }
      ],
      "payable": false,
      "stateMutability": "view",
      "type": "function"
    },
    {
      "constant": true,
      "inputs": [],
      "name": "onePercentRate",
      "outputs": [
        {
          "internalType": "uint256",
          "name": "",
          "type": "uint256"
        }
      ],
      "payable": false,
      "stateMutability": "view",
      "type": "function"
    },
    {
      "constant": true,
      "inputs": [],
      "name": "scaleFactor",
      "outputs": [
        {
          "internalType": "uint256",
          "name": "",
          "type": "uint256"
        }
      ],
      "payable": false,
      "stateMutability": "view",
      "type": "function"
    },
    {
      "constant": true,
      "inputs": [],
      "name": "scaledSupply",
      "outputs": [
        {
          "internalType": "uint256",
          "name": "",
          "type": "uint256"
        }
      ],
      "payable": false,
      "stateMutability": "view",
      "type": "function"
    },
    {
      "constant": true,
      "inputs": [],
      "name": "tokenInstance",
      "outputs": [
        {
          "internalType": "contract TokenInterface",
          "name": "",
          "type": "address"
        }
      ],
      "payable": false,
      "stateMutability": "view",
      "type": "function"
    },
    {
      "constant": false,
      "inputs": [
        {
          "internalType": "uint256",
          "name": "_loanAmount",
          "type": "uint256"
        },
        {
          "internalType": "string",
          "name": "currentToken",
          "type": "string"
        }
      ],
      "name": "executeFlashLoan",
      "outputs": [],
      "payable": false,
      "stateMutability": "nonpayable",
      "type": "function"
    }
  ],
  "bytecode": "0x60806040526064600a55620186a0600b55670de0b6b3a7640000600c5534801561002857600080fd5b50604051610f91380380610f918339818101604052602081101561004b57600080fd5b8101908080519060200190929190505050806000806101000a81548173ffffffffffffffffffffffffffffffffffffffff021916908373ffffffffffffffffffffffffffffffffffffffff16021790555050610ee5806100ac6000396000f3fe608060405234801561001057600080fd5b50600436106100ea5760003560e01c806394b5798a1161008c578063c0e0d36211610066578063c0e0d3621461031a578063ce4b5bbe14610338578063ddca3f4314610356578063e71b22e114610374576100ea565b806394b5798a146102c0578063ac262f7c146102de578063b9e872e6146102fc576100ea565b8063658030b3116100c8578063658030b31461021c578063683dd191146102665780636d0ef93c1461028457806376aa8d6c146102a2576100ea565b80630bab76eb146100ef5780633956c099146101b4578063561824f8146101fe575b600080fd5b6101b26004803603604081101561010557600080fd5b81019080803590602001909291908035906020019064010000000081111561012c57600080fd5b82018360208201111561013e57600080fd5b8035906020019184600183028401116401000000008311171561016057600080fd5b91908080601f016020809104026020016040519081016040528093929190818152602001838380828437600081840152601f19601f820116905080830192505050505050509192919290505050610392565b005b6101bc610c6c565b604051808273ffffffffffffffffffffffffffffffffffffffff1673ffffffffffffffffffffffffffffffffffffffff16815260200191505060405180910390f35b610206610c91565b6040518082815260200191505060405180910390f35b610224610c97565b604051808273ffffffffffffffffffffffffffffffffffffffff1673ffffffffffffffffffffffffffffffffffffffff16815260200191505060405180910390f35b61026e610cbd565b6040518082815260200191505060405180910390f35b61028c610cc3565b6040518082815260200191505060405180910390f35b6102aa610cc9565b6040518082815260200191505060405180910390f35b6102c8610ccf565b6040518082815260200191505060405180910390f35b6102e6610cd5565b6040518082815260200191505060405180910390f35b610304610cdb565b6040518082815260200191505060405180910390f35b610322610ce1565b6040518082815260200191505060405180910390f35b610340610ce7565b6040518082815260200191505060405180910390f35b61035e610ced565b6040518082815260200191505060405180910390f35b61037c610cf3565b6040518082815260200191505060405180910390f35b6000809054906101000a900473ffffffffffffffffffffffffffffffffffffffff1673ffffffffffffffffffffffffffffffffffffffff16630b5576b3826040518263ffffffff1660e01b81526004018080602001828103825283818151815260200191508051906020019080838360005b8381101561041f578082015181840152602081019050610404565b50505050905090810190601f16801561044c5780820380516001836020036101000a031916815260200191505b509250505060206040518083038186803b15801561046957600080fd5b505afa15801561047d573d6000803e3d6000fd5b505050506040513d602081101561049357600080fd5b8101908080519060200190929190505050600160006101000a81548173ffffffffffffffffffffffffffffffffffffffff021916908373ffffffffffffffffffffffffffffffffffffffff1602179055507fd95386d0bc799ea493ab1fa54aed1dcedc045b97325026bcc059877912b5a338600160009054906101000a900473ffffffffffffffffffffffffffffffffffffffff166001604051808373ffffffffffffffffffffffffffffffffffffffff1673ffffffffffffffffffffffffffffffffffffffff1681526020018281526020019250505060405180910390a1600160009054906101000a900473ffffffffffffffffffffffffffffffffffffffff1673ffffffffffffffffffffffffffffffffffffffff166370a08231306040518263ffffffff1660e01b8152600401808273ffffffffffffffffffffffffffffffffffffffff1673ffffffffffffffffffffffffffffffffffffffff16815260200191505060206040518083038186803b15801561061157600080fd5b505afa158015610625573d6000803e3d6000fd5b505050506040513d602081101561063b57600080fd5b8101908080519060200190929190505050600281905550600160009054906101000a900473ffffffffffffffffffffffffffffffffffffffff1673ffffffffffffffffffffffffffffffffffffffff166370a082316000809054906101000a900473ffffffffffffffffffffffffffffffffffffffff166040518263ffffffff1660e01b8152600401808273ffffffffffffffffffffffffffffffffffffffff1673ffffffffffffffffffffffffffffffffffffffff16815260200191505060206040518083038186803b15801561071257600080fd5b505afa158015610726573d6000803e3d6000fd5b505050506040513d602081101561073c57600080fd5b8101908080519060200190929190505050600781905550600160009054906101000a900473ffffffffffffffffffffffffffffffffffffffff1673ffffffffffffffffffffffffffffffffffffffff16632e2d298483336000809054906101000a900473ffffffffffffffffffffffffffffffffffffffff166040518463ffffffff1660e01b8152600401808481526020018373ffffffffffffffffffffffffffffffffffffffff1673ffffffffffffffffffffffffffffffffffffffff1681526020018273ffffffffffffffffffffffffffffffffffffffff1673ffffffffffffffffffffffffffffffffffffffff1681526020019350505050602060405180830381600087803b15801561085157600080fd5b505af1158015610865573d6000803e3d6000fd5b505050506040513d602081101561087b57600080fd5b81019080805190602001909291905050505061089d82600c54600a5402610cf9565b600581905550600060055414156108bb57600c546001026005819055505b6108c9600b54600c54610d43565b6008819055506108e1600854600c54600a5402610d43565b6009819055506108f5600954600754610cf9565b60068190555060065460055401600481905550600160009054906101000a900473ffffffffffffffffffffffffffffffffffffffff1673ffffffffffffffffffffffffffffffffffffffff1663a9059cbb3360045485016040518363ffffffff1660e01b8152600401808373ffffffffffffffffffffffffffffffffffffffff1673ffffffffffffffffffffffffffffffffffffffff16815260200182815260200192505050602060405180830381600087803b1580156109b557600080fd5b505af11580156109c9573d6000803e3d6000fd5b505050506040513d60208110156109df57600080fd5b8101908080519060200190929190505050507fd95386d0bc799ea493ab1fa54aed1dcedc045b97325026bcc059877912b5a338600160009054906101000a900473ffffffffffffffffffffffffffffffffffffffff166002604051808373ffffffffffffffffffffffffffffffffffffffff1673ffffffffffffffffffffffffffffffffffffffff1681526020018281526020019250505060405180910390a17fd95386d0bc799ea493ab1fa54aed1dcedc045b97325026bcc059877912b5a338600160009054906101000a900473ffffffffffffffffffffffffffffffffffffffff16600254604051808373ffffffffffffffffffffffffffffffffffffffff1673ffffffffffffffffffffffffffffffffffffffff1681526020018281526020019250505060405180910390a1600160009054906101000a900473ffffffffffffffffffffffffffffffffffffffff1673ffffffffffffffffffffffffffffffffffffffff166370a08231306040518263ffffffff1660e01b8152600401808273ffffffffffffffffffffffffffffffffffffffff1673ffffffffffffffffffffffffffffffffffffffff16815260200191505060206040518083038186803b158015610bad57600080fd5b505afa158015610bc1573d6000803e3d6000fd5b505050506040513d6020811015610bd757600080fd5b81019080805190602001909291905050506003819055506002546003541115610c68576040517f08c379a00000000000000000000000000000000000000000000000000000000081526004018080602001828103825260158152602001807f466c617368206c6f616e206e6f7420726570616964000000000000000000000081525060200191505060405180910390fd5b5050565b6000809054906101000a900473ffffffffffffffffffffffffffffffffffffffff1681565b60075481565b600160009054906101000a900473ffffffffffffffffffffffffffffffffffffffff1681565b60085481565b60095481565b600a5481565b60025481565b600c5481565b60065481565b60035481565b600b5481565b60045481565b60055481565b6000610d3b83836040518060400160405280601a81526020017f536166654d6174683a206469766973696f6e206279207a65726f000000000000815250610dc9565b905092915050565b600080831415610d565760009050610dc3565b6000828402905082848281610d6757fe5b0414610dbe576040517f08c379a0000000000000000000000000000000000000000000000000000000008152600401808060200182810382526021815260200180610e906021913960400191505060405180910390fd5b809150505b92915050565b60008083118290610e75576040517f08c379a00000000000000000000000000000000000000000000000000000000081526004018080602001828103825283818151815260200191508051906020019080838360005b83811015610e3a578082015181840152602081019050610e1f565b50505050905090810190601f168015610e675780820380516001836020036101000a031916815260200191505b509250505060405180910390fd5b506000838581610e8157fe5b04905080915050939250505056fe536166654d6174683a206d756c7469706c69636174696f6e206f766572666c6f77a265627a7a7231582025785a01a97d3732d38b568e2a2a53ac2147ab4502de32e51d2ad79317a5dff164736f6c63430005100032",
  "source": "pragma solidity ^0.5.0;\n\nimport '../Eth_Swap.sol';\nimport '../Parent Contracts/Token_Interface.sol';\n\n// Prevents overflow and underflow errors.\nimport \"../../../node_modules/@openzeppelin/contracts/math/SafeMath.sol\";\n\ncontract FlashLoan {\n\n\n    event LogMessageA(string);\n\n    event eventPostFlashLoan(TokenInterface, uint256);\n\n    EthSwap public ethSwapInstance;\n    TokenInterface public tokenInstance;\n\n    uint256 public balanceBefore;\n    uint256 public balanceAfter;\n    uint256 public fee;\n    uint256 public onePercentRate;\n    uint256 public inversePercentOfSupply;\n    uint256 public ethSwapTokBal;\n    uint256 public scaleFactor;\n    uint256 public scaledSupply;\n\n    uint256 public CONST = 100;\n    uint256 public SCALE_FACTOR = 100000;\n    uint256 public WEI_SCALE = 10**18;\n\n    constructor(address exchange) public {\n        ethSwapInstance = EthSwap(exchange);\n    }\n\n    modifier ensureLoanRepayment() \n    {\n        //code before _ runs before executeFlashLoan func.\n        // code after this mark runs after the exectueFlashLoan func\n        _;\n        emit eventPostFlashLoan(tokenInstance, balanceBefore);\n        balanceAfter = tokenInstance.balanceOf(address(this));\n        require(balanceAfter <= balanceBefore, \"Flash loan not repaid\");\n    }\n\n    function executeFlashLoan(uint256 _loanAmount, string memory currentToken) public ensureLoanRepayment() \n    {\n\n        // Call exchange. Retrieve the instance of the contract based on symbol\n        tokenInstance = ethSwapInstance.getTokenInstance(currentToken);\n\n        emit eventPostFlashLoan(tokenInstance, 1);\n\n        // Get this balance for our ensureLoanRepayment check\n        balanceBefore = tokenInstance.balanceOf(address(this));\n\n        // Current Ethswap Exchange Supply of token being loaned. (Used for fee calculation)\n        ethSwapTokBal = tokenInstance.balanceOf(address(ethSwapInstance));\n\n        // Deposit user's loan to the exchange. (Different from transfer, not passing ether.)\n        tokenInstance.deposit(_loanAmount, msg.sender, address(ethSwapInstance));\n\n    /*\n        Calculate Interest Fee (paid to the user)\n    */\n        // If current token blanace is high, the users loan should be worth less.\n        // fee = (_loanAmount * .01) + (1 / ethSwapTokBal)\n        // NOTE: Solidity has no fractions, so see below.\n\n        // If loan amount is under 100, will give a minimum of 1 wei to user.\n        onePercentRate = SafeMath.div(_loanAmount, CONST * WEI_SCALE);\n        if (onePercentRate == 0) {\n            onePercentRate = 1 * WEI_SCALE;\n        }\n        \n        // 10 mill wei / ethSwapTokBal 500000 wei = you get 20 wei back\n        // 10 mill wei / ethSwapTokBal 500 wei = you get 20000 wei back\n        // If balance is over 10 million, you get none back.\n        scaleFactor = SafeMath.mul(SCALE_FACTOR, WEI_SCALE);\n        scaledSupply =  SafeMath.mul(scaleFactor, CONST * WEI_SCALE);\n        inversePercentOfSupply = SafeMath.div(scaledSupply, ethSwapTokBal);\n\n        fee = onePercentRate + inversePercentOfSupply;\n\n        // Repay the user.\n        tokenInstance.transfer(msg.sender, _loanAmount + fee);\n\n\n        emit eventPostFlashLoan(tokenInstance, 2);\n    }\n}\n\n\n\n\n",
  "sourcePath": "/Users/Nelson/Desktop/DEX-web-app/src/contracts/Flash Loan/FlashLoan.sol",
  "compiler": {
    "name": "solc",
    "version": "0.5.16+commit.9c3226ce.Emscripten.clang"
  },
  "schemaVersion": "3.4.14",
  "updatedAt": "2023-07-22T19:24:49.231Z",
  "networkType": "ethereum",
  "devdoc": {
    "methods": {}
  },
  "userdoc": {
    "methods": {}
  }
}