{
  "contractName": "MockLinkToken",
  "abi": [
    {
      "inputs": [],
      "payable": false,
      "stateMutability": "nonpayable",
      "type": "constructor"
    },
    {
      "constant": true,
      "inputs": [],
      "name": "decimals",
      "outputs": [
        {
          "internalType": "uint8",
          "name": "",
          "type": "uint8"
        }
      ],
      "payable": false,
      "stateMutability": "view",
      "type": "function"
    },
    {
      "constant": true,
      "inputs": [],
      "name": "name",
      "outputs": [
        {
          "internalType": "string",
          "name": "",
          "type": "string"
        }
      ],
      "payable": false,
      "stateMutability": "view",
      "type": "function"
    },
    {
      "constant": true,
      "inputs": [],
      "name": "symbol",
      "outputs": [
        {
          "internalType": "string",
          "name": "",
          "type": "string"
        }
      ],
      "payable": false,
      "stateMutability": "view",
      "type": "function"
    },
    {
      "constant": true,
      "inputs": [],
      "name": "totalSupply",
      "outputs": [
        {
          "internalType": "uint256",
          "name": "",
          "type": "uint256"
        }
      ],
      "payable": false,
      "stateMutability": "view",
      "type": "function"
    },
    {
      "constant": true,
      "inputs": [
        {
          "internalType": "address",
          "name": "account",
          "type": "address"
        }
      ],
      "name": "balanceOf",
      "outputs": [
        {
          "internalType": "uint256",
          "name": "",
          "type": "uint256"
        }
      ],
      "payable": false,
      "stateMutability": "view",
      "type": "function"
    },
    {
      "constant": false,
      "inputs": [
        {
          "internalType": "address",
          "name": "recipient",
          "type": "address"
        },
        {
          "internalType": "uint256",
          "name": "amount",
          "type": "uint256"
        }
      ],
      "name": "transfer",
      "outputs": [
        {
          "internalType": "bool",
          "name": "",
          "type": "bool"
        }
      ],
      "payable": false,
      "stateMutability": "nonpayable",
      "type": "function"
    },
    {
      "constant": false,
      "inputs": [
        {
          "internalType": "address",
          "name": "sender",
          "type": "address"
        },
        {
          "internalType": "address",
          "name": "recipient",
          "type": "address"
        },
        {
          "internalType": "uint256",
          "name": "amount",
          "type": "uint256"
        }
      ],
      "name": "transferFrom",
      "outputs": [
        {
          "internalType": "bool",
          "name": "",
          "type": "bool"
        }
      ],
      "payable": false,
      "stateMutability": "nonpayable",
      "type": "function"
    },
    {
      "constant": false,
      "inputs": [
        {
          "internalType": "uint256",
          "name": "_amount",
          "type": "uint256"
        },
        {
          "components": [
            {
              "internalType": "string",
              "name": "id",
              "type": "string"
            },
            {
              "internalType": "string",
              "name": "apiCall",
              "type": "string"
            },
            {
              "internalType": "string",
              "name": "path",
              "type": "string"
            },
            {
              "internalType": "uint256",
              "name": "timesAmount",
              "type": "uint256"
            }
          ],
          "internalType": "struct OracleClient.Request",
          "name": "_data",
          "type": "tuple"
        },
        {
          "internalType": "address",
          "name": "_oracleContract",
          "type": "address"
        }
      ],
      "name": "transferFromOracleClient",
      "outputs": [],
      "payable": false,
      "stateMutability": "nonpayable",
      "type": "function"
    }
  ],
  "bytecode": "0x60806040526040518060400160405280600d81526020017f4d6f636b4c696e6b546f6b656e000000000000000000000000000000000000008152506000908051906020019061004f92919061011e565b506040518060400160405280600581526020017f4d4c494e4b0000000000000000000000000000000000000000000000000000008152506001908051906020019061009b92919061011e565b506012600260006101000a81548160ff021916908360ff16021790555069d3c21bcecceda10000006003553480156100d257600080fd5b50600354600460003373ffffffffffffffffffffffffffffffffffffffff1673ffffffffffffffffffffffffffffffffffffffff168152602001908152602001600020819055506101c3565b828054600181600116156101000203166002900490600052602060002090601f016020900481019282601f1061015f57805160ff191683800117855561018d565b8280016001018555821561018d579182015b8281111561018c578251825591602001919060010190610171565b5b50905061019a919061019e565b5090565b6101c091905b808211156101bc5760008160009055506001016101a4565b5090565b90565b610bc3806101d26000396000f3fe608060405234801561001057600080fd5b50600436106100885760003560e01c806370a082311161005b57806370a082311461011757806395d89b4114610147578063a9059cbb14610165578063e84b54471461019557610088565b806306fdde031461008d57806318160ddd146100ab57806323b872dd146100c9578063313ce567146100f9575b600080fd5b6100956101b1565b6040516100a29190610961565b60405180910390f35b6100b361024f565b6040516100c091906109a3565b60405180910390f35b6100e360048036036100de919081019061068e565b610255565b6040516100f09190610946565b60405180910390f35b61010161037e565b60405161010e91906109be565b60405180910390f35b610131600480360361012c9190810190610665565b610391565b60405161013e91906109a3565b60405180910390f35b61014f6103da565b60405161015c9190610961565b60405180910390f35b61017f600480360361017a91908101906106dd565b610478565b60405161018c9190610946565b60405180910390f35b6101af60048036036101aa9190810190610719565b6105a0565b005b60008054600181600116156101000203166002900480601f0160208091040260200160405190810160405280929190818152602001828054600181600116156101000203166002900480156102475780601f1061021c57610100808354040283529160200191610247565b820191906000526020600020905b81548152906001019060200180831161022a57829003601f168201915b505050505081565b60035481565b6000600460008573ffffffffffffffffffffffffffffffffffffffff1673ffffffffffffffffffffffffffffffffffffffff168152602001908152602001600020548211156102d9576040517f08c379a00000000000000000000000000000000000000000000000000000000081526004016102d090610983565b60405180910390fd5b81600460008673ffffffffffffffffffffffffffffffffffffffff1673ffffffffffffffffffffffffffffffffffffffff1681526020019081526020016000206000828254039250508190555081600460008573ffffffffffffffffffffffffffffffffffffffff1673ffffffffffffffffffffffffffffffffffffffff16815260200190815260200160002060008282540192505081905550600190509392505050565b600260009054906101000a900460ff1681565b6000600460008373ffffffffffffffffffffffffffffffffffffffff1673ffffffffffffffffffffffffffffffffffffffff168152602001908152602001600020549050919050565b60018054600181600116156101000203166002900480601f0160208091040260200160405190810160405280929190818152602001828054600181600116156101000203166002900480156104705780601f1061044557610100808354040283529160200191610470565b820191906000526020600020905b81548152906001019060200180831161045357829003601f168201915b505050505081565b6000600460003373ffffffffffffffffffffffffffffffffffffffff1673ffffffffffffffffffffffffffffffffffffffff168152602001908152602001600020548211156104fc576040517f08c379a00000000000000000000000000000000000000000000000000000000081526004016104f390610983565b60405180910390fd5b81600460003373ffffffffffffffffffffffffffffffffffffffff1673ffffffffffffffffffffffffffffffffffffffff1681526020019081526020016000206000828254039250508190555081600460008573ffffffffffffffffffffffffffffffffffffffff1673ffffffffffffffffffffffffffffffffffffffff168152602001908152602001600020600082825401925050819055506001905092915050565b6105ab338285610255565b508073ffffffffffffffffffffffffffffffffffffffff16632b4892143385856040518463ffffffff1660e01b81526004016105e993929190610908565b600060405180830381600087803b15801561060357600080fd5b505af1158015610617573d6000803e3d6000fd5b50505050505050565b60008135905061062f81610b52565b92915050565b60006080828403121561064757600080fd5b81905092915050565b60008135905061065f81610b69565b92915050565b60006020828403121561067757600080fd5b600061068584828501610620565b91505092915050565b6000806000606084860312156106a357600080fd5b60006106b186828701610620565b93505060206106c286828701610620565b92505060406106d386828701610650565b9150509250925092565b600080604083850312156106f057600080fd5b60006106fe85828601610620565b925050602061070f85828601610650565b9150509250929050565b60008060006060848603121561072e57600080fd5b600061073c86828701610650565b935050602084013567ffffffffffffffff81111561075957600080fd5b61076586828701610635565b925050604061077686828701610620565b9150509250925092565b61078981610ac9565b82525050565b61079881610a86565b82525050565b60006107aa83856109e4565b93506107b7838584610aff565b6107c083610b41565b840190509392505050565b60006107d6826109d9565b6107e081856109f5565b93506107f0818560208601610b0e565b6107f981610b41565b840191505092915050565b60006108116014836109f5565b91507f496e73756666696369656e742062616c616e63650000000000000000000000006000830152602082019050919050565b6000608083016108576000840184610a06565b858303600087015261086a83828461079e565b9250505061087b6020840184610a06565b858303602087015261088e83828461079e565b9250505061089f6040840184610a06565b85830360408701526108b283828461079e565b925050506108c36060840184610a5d565b6108d060608601826108db565b508091505092915050565b6108e481610ab2565b82525050565b6108f381610ab2565b82525050565b61090281610abc565b82525050565b600060608201905061091d6000830186610780565b61092a60208301856108ea565b818103604083015261093c8184610844565b9050949350505050565b600060208201905061095b600083018461078f565b92915050565b6000602082019050818103600083015261097b81846107cb565b905092915050565b6000602082019050818103600083015261099c81610804565b9050919050565b60006020820190506109b860008301846108ea565b92915050565b60006020820190506109d360008301846108f9565b92915050565b600081519050919050565b600082825260208201905092915050565b600082825260208201905092915050565b60008083356001602003843603038112610a1f57600080fd5b83810192508235915060208301925067ffffffffffffffff821115610a4357600080fd5b600182023603841315610a5557600080fd5b509250929050565b6000610a6c6020840184610650565b905092915050565b6000610a7f82610a92565b9050919050565b60008115159050919050565b600073ffffffffffffffffffffffffffffffffffffffff82169050919050565b6000819050919050565b600060ff82169050919050565b6000610ad482610adb565b9050919050565b6000610ae682610aed565b9050919050565b6000610af882610a92565b9050919050565b82818337600083830152505050565b60005b83811015610b2c578082015181840152602081019050610b11565b83811115610b3b576000848401525b50505050565b6000601f19601f8301169050919050565b610b5b81610a74565b8114610b6657600080fd5b50565b610b7281610ab2565b8114610b7d57600080fd5b5056fea365627a7a723158204470ee56832545a48e555848d2bc092fd4a9c7a11c35466ecf0a7abe234d23176c6578706572696d656e74616cf564736f6c63430005100040",
  "source": "// SPDX-License-Identifier: MIT\npragma solidity ^0.5.0;\n\n//This pragma enables the experimental ABI encoder feature, \n//which allows encoding and decoding of complex data types \n//such as structs and arrays.\npragma experimental ABIEncoderV2;\n\nimport './OracleContract.sol';\nimport './OracleClient.sol';\n\ncontract MockLinkToken {\n\n    string public name = \"MockLinkToken\";\n    string public symbol = \"MLINK\";\n    uint8 public decimals = 18;\n    uint256 public totalSupply = 1000000000000000000000000;\n\n    mapping(address => uint256) balances;\n    mapping(address => mapping(address => uint256)) allowances;\n\n    constructor() public {\n        balances[msg.sender] = totalSupply;\n    }\n\n    function balanceOf(address account) external view returns (uint256) {\n        return balances[account];\n    }\n\n    function transfer(address recipient, uint256 amount) external returns (bool) {\n        require(amount <= balances[msg.sender], \"Insufficient balance\");\n        balances[msg.sender] -= amount;\n        balances[recipient] += amount;\n        return true;\n    }\n\n    // Typically would call approve() first, so that we approve\n    // the money to be spent.  Prevents a random user from calling\n    // transferFrom without approval.\n    function transferFrom(\n        address sender,\n        address recipient,\n        uint256 amount\n    ) public returns (bool) {\n        require(amount <= balances[sender], \"Insufficient balance\");\n        //require(amount <= allowances[sender][msg.sender], \"Insufficient allowance\");\n        balances[sender] -= amount;\n        balances[recipient] += amount;\n        //allowances[sender][msg.sender] -= amount;\n        return true;\n    }\n\n    // function approve(address spender, uint256 amount) external returns (bool) {\n    //     // oracleContract is \n    //     allowances[msg.sender][spender] = amount;\n    //     return true;\n    // }\n\n    // function allowance(address owner, address spender) external view returns (uint256) {\n    //     return allowances[owner][spender];\n    // }\n\n\n    // callData needed here to inform compiler you won't modify data passed to it.\n    // needed for external function since they have restrictions on how data can be accessed/modified.\n    // and the request is a complex data structure.\n    function transferFromOracleClient(uint256 _amount, OracleClient.Request calldata _data, address _oracleContract) external {\n\n        transferFrom(msg.sender, _oracleContract, _amount);\n\n        // Invoke the onTokenTransfer function in the Oracle contract\n        OracleContract(_oracleContract).onTokenTransfer(msg.sender, _amount, _data);\n    }\n\n\n}\n ",
  "sourcePath": "/Users/Nelson/Desktop/DEX-web-app/src/contracts/Oracle Related/MockLinkToken.sol",
  "compiler": {
    "name": "solc",
    "version": "0.5.16+commit.9c3226ce.Emscripten.clang"
  },
  "schemaVersion": "3.4.14",
  "updatedAt": "2023-07-12T21:44:12.058Z",
  "networkType": "ethereum",
  "devdoc": {
    "methods": {}
  },
  "userdoc": {
    "methods": {}
  }
}