{
  "contractName": "OracleClient",
  "abi": [
    {
      "inputs": [
        {
          "internalType": "address",
          "name": "oracleContractAddress",
          "type": "address"
        },
        {
          "internalType": "address",
          "name": "mockLinkTokenAddress",
          "type": "address"
        }
      ],
      "payable": false,
      "stateMutability": "nonpayable",
      "type": "constructor"
    },
    {
      "anonymous": false,
      "inputs": [
        {
          "indexed": false,
          "internalType": "string",
          "name": "apple",
          "type": "string"
        }
      ],
      "name": "ClientTest",
      "type": "event"
    },
    {
      "anonymous": false,
      "inputs": [
        {
          "indexed": true,
          "internalType": "bytes32",
          "name": "requestId",
          "type": "bytes32"
        },
        {
          "indexed": false,
          "internalType": "uint256[]",
          "name": "volume",
          "type": "uint256[]"
        }
      ],
      "name": "RequestVolume",
      "type": "event"
    },
    {
      "constant": true,
      "inputs": [],
      "name": "mockLinkToken",
      "outputs": [
        {
          "internalType": "contract MockLinkToken",
          "name": "",
          "type": "address"
        }
      ],
      "payable": false,
      "stateMutability": "view",
      "type": "function"
    },
    {
      "constant": true,
      "inputs": [],
      "name": "myRequest",
      "outputs": [
        {
          "internalType": "string",
          "name": "id",
          "type": "string"
        },
        {
          "internalType": "string",
          "name": "apiCall",
          "type": "string"
        },
        {
          "internalType": "string",
          "name": "path",
          "type": "string"
        },
        {
          "internalType": "uint256",
          "name": "timesAmount",
          "type": "uint256"
        }
      ],
      "payable": false,
      "stateMutability": "view",
      "type": "function"
    },
    {
      "constant": true,
      "inputs": [],
      "name": "ocAddress",
      "outputs": [
        {
          "internalType": "address",
          "name": "",
          "type": "address"
        }
      ],
      "payable": false,
      "stateMutability": "view",
      "type": "function"
    },
    {
      "constant": true,
      "inputs": [],
      "name": "oracleContract",
      "outputs": [
        {
          "internalType": "contract OracleContract",
          "name": "",
          "type": "address"
        }
      ],
      "payable": false,
      "stateMutability": "view",
      "type": "function"
    },
    {
      "constant": true,
      "inputs": [
        {
          "internalType": "uint256",
          "name": "",
          "type": "uint256"
        }
      ],
      "name": "volume",
      "outputs": [
        {
          "internalType": "uint256",
          "name": "",
          "type": "uint256"
        }
      ],
      "payable": false,
      "stateMutability": "view",
      "type": "function"
    },
    {
      "constant": true,
      "inputs": [],
      "name": "getData",
      "outputs": [
        {
          "internalType": "uint256[]",
          "name": "",
          "type": "uint256[]"
        }
      ],
      "payable": false,
      "stateMutability": "view",
      "type": "function"
    },
    {
      "constant": false,
      "inputs": [],
      "name": "requestOracleData",
      "outputs": [],
      "payable": false,
      "stateMutability": "nonpayable",
      "type": "function"
    },
    {
      "constant": false,
      "inputs": [
        {
          "internalType": "bytes32",
          "name": "_requestId",
          "type": "bytes32"
        },
        {
          "internalType": "uint256[]",
          "name": "_volume",
          "type": "uint256[]"
        }
      ],
      "name": "fulfill",
      "outputs": [],
      "payable": false,
      "stateMutability": "nonpayable",
      "type": "function"
    }
  ],
  "bytecode": "0x60806040523480156200001157600080fd5b50604051620010f1380380620010f183398181016040526200003791908101906200021e565b80600360006101000a81548173ffffffffffffffffffffffffffffffffffffffff021916908373ffffffffffffffffffffffffffffffffffffffff16021790555081600460006101000a81548173ffffffffffffffffffffffffffffffffffffffff021916908373ffffffffffffffffffffffffffffffffffffffff16021790555081600560006101000a81548173ffffffffffffffffffffffffffffffffffffffff021916908373ffffffffffffffffffffffffffffffffffffffff1602179055506040518060400160405280600181526020017f3000000000000000000000000000000000000000000000000000000000000000815250600190805190602001906200014792919062000158565b5060016002819055505050620002ad565b828054600181600116156101000203166002900490600052602060002090601f016020900481019282601f106200019b57805160ff1916838001178555620001cc565b82800160010185558215620001cc579182015b82811115620001cb578251825591602001919060010190620001ae565b5b509050620001db9190620001df565b5090565b6200020491905b8082111562000200576000816000905550600101620001e6565b5090565b90565b600081519050620002188162000293565b92915050565b600080604083850312156200023257600080fd5b6000620002428582860162000207565b9250506020620002558582860162000207565b9150509250929050565b60006200026c8262000273565b9050919050565b600073ffffffffffffffffffffffffffffffffffffffff82169050919050565b6200029e816200025f565b8114620002aa57600080fd5b50565b610e3480620002bd6000396000f3fe608060405234801561001057600080fd5b50600436106100885760003560e01c8063bece75321161005b578063bece753214610103578063cfbe292714610121578063dddf800914610142578063ec60640b1461016057610088565b80633a51d07a1461008d5780633bc5de30146100ab578063a38f5742146100c9578063ae4478eb146100f9575b600080fd5b61009561017c565b6040516100a29190610a81565b60405180910390f35b6100b36101a2565b6040516100c09190610a9c565b60405180910390f35b6100e360048036036100de9190810190610854565b6101fa565b6040516100f09190610b4e565b60405180910390f35b61010161021b565b005b61010b61038d565b6040516101189190610ad9565b60405180910390f35b6101296103b3565b6040516101399493929190610af4565b60405180910390f35b61014a610599565b6040516101579190610abe565b60405180910390f35b61017a60048036036101759190810190610800565b6105bf565b005b600560009054906101000a900473ffffffffffffffffffffffffffffffffffffffff1681565b606060008054806020026020016040519081016040528092919081815260200182805480156101f057602002820191906000526020600020905b8154815260200190600101908083116101dc575b5050505050905090565b6000818154811061020757fe5b906000526020600020016000915090505481565b6001600660000190805460018160011615610100020316600290046102419291906105da565b50604051806080016040528060498152602001610da96049913960066001019080519060200190610273929190610661565b506040518060400160405280601881526020017f5241572e4554482e5553442e564f4c554d453234484f55520000000000000000815250600660020190805190602001906102c2929190610661565b50670de0b6b3a7640000600660030181905550600360009054906101000a900473ffffffffffffffffffffffffffffffffffffffff1673ffffffffffffffffffffffffffffffffffffffff1663e84b54476002546006600560009054906101000a900473ffffffffffffffffffffffffffffffffffffffff166040518463ffffffff1660e01b815260040161035993929190610b69565b600060405180830381600087803b15801561037357600080fd5b505af1158015610387573d6000803e3d6000fd5b50505050565b600460009054906101000a900473ffffffffffffffffffffffffffffffffffffffff1681565b6006806000018054600181600116156101000203166002900480601f01602080910402602001604051908101604052809291908181526020018280546001816001161561010002031660029004801561044d5780601f106104225761010080835404028352916020019161044d565b820191906000526020600020905b81548152906001019060200180831161043057829003601f168201915b505050505090806001018054600181600116156101000203166002900480601f0160208091040260200160405190810160405280929190818152602001828054600181600116156101000203166002900480156104eb5780601f106104c0576101008083540402835291602001916104eb565b820191906000526020600020905b8154815290600101906020018083116104ce57829003601f168201915b505050505090806002018054600181600116156101000203166002900480601f0160208091040260200160405190810160405280929190818152602001828054600181600116156101000203166002900480156105895780601f1061055e57610100808354040283529160200191610589565b820191906000526020600020905b81548152906001019060200180831161056c57829003601f168201915b5050505050908060030154905084565b600360009054906101000a900473ffffffffffffffffffffffffffffffffffffffff1681565b80600090805190602001906105d59291906106e1565b505050565b828054600181600116156101000203166002900490600052602060002090601f016020900481019282601f106106135780548555610650565b8280016001018555821561065057600052602060002091601f016020900482015b8281111561064f578254825591600101919060010190610634565b5b50905061065d919061072e565b5090565b828054600181600116156101000203166002900490600052602060002090601f016020900481019282601f106106a257805160ff19168380011785556106d0565b828001600101855582156106d0579182015b828111156106cf5782518255916020019190600101906106b4565b5b5090506106dd919061072e565b5090565b82805482825590600052602060002090810192821561071d579160200282015b8281111561071c578251825591602001919060010190610701565b5b50905061072a919061072e565b5090565b61075091905b8082111561074c576000816000905550600101610734565b5090565b90565b600082601f83011261076457600080fd5b813561077761077282610bd4565b610ba7565b9150818183526020840193506020810190508385602084028201111561079c57600080fd5b60005b838110156107cc57816107b288826107eb565b84526020840193506020830192505060018101905061079f565b5050505092915050565b6000813590506107e581610d7a565b92915050565b6000813590506107fa81610d91565b92915050565b6000806040838503121561081357600080fd5b6000610821858286016107d6565b925050602083013567ffffffffffffffff81111561083e57600080fd5b61084a85828601610753565b9150509250929050565b60006020828403121561086657600080fd5b6000610874848285016107eb565b91505092915050565b60006108898383610a63565b60208301905092915050565b61089e81610c81565b82525050565b60006108af82610c21565b6108b98185610c44565b93506108c483610bfc565b8060005b838110156108f55781516108dc888261087d565b97506108e783610c37565b9250506001810190506108c8565b5085935050505092915050565b61090b81610cc7565b82525050565b61091a81610ceb565b82525050565b600061092b82610c2c565b6109358185610c66565b9350610945818560208601610d0f565b61094e81610d5c565b840191505092915050565b600081546001811660008114610976576001811461099c576109e0565b607f60028304166109878187610c55565b955060ff1983168652602086019350506109e0565b600282046109aa8187610c55565b95506109b585610c0c565b60005b828110156109d7578154818901526001820191506020810190506109b8565b80880195505050505b505092915050565b60006080830160008084018583036000870152610a058382610959565b925050600184018583036020870152610a1e8382610959565b925050600284018583036040870152610a378382610959565b92505060038401549050610a4a81610d42565b610a576060870182610a63565b50819250505092915050565b610a6c81610cbd565b82525050565b610a7b81610cbd565b82525050565b6000602082019050610a966000830184610895565b92915050565b60006020820190508181036000830152610ab681846108a4565b905092915050565b6000602082019050610ad36000830184610902565b92915050565b6000602082019050610aee6000830184610911565b92915050565b60006080820190508181036000830152610b0e8187610920565b90508181036020830152610b228186610920565b90508181036040830152610b368185610920565b9050610b456060830184610a72565b95945050505050565b6000602082019050610b636000830184610a72565b92915050565b6000606082019050610b7e6000830186610a72565b8181036020830152610b9081856109e8565b9050610b9f6040830184610895565b949350505050565b6000604051905081810181811067ffffffffffffffff82111715610bca57600080fd5b8060405250919050565b600067ffffffffffffffff821115610beb57600080fd5b602082029050602081019050919050565b6000819050602082019050919050565b60008190508160005260206000209050919050565b600081519050919050565b600081519050919050565b6000602082019050919050565b600082825260208201905092915050565b600082825260208201905092915050565b600082825260208201905092915050565b6000819050919050565b6000610c8c82610c9d565b9050919050565b6000819050919050565b600073ffffffffffffffffffffffffffffffffffffffff82169050919050565b6000819050919050565b6000610cd282610cd9565b9050919050565b6000610ce482610c9d565b9050919050565b6000610cf682610cfd565b9050919050565b6000610d0882610c9d565b9050919050565b60005b83811015610d2d578082015181840152602081019050610d12565b83811115610d3c576000848401525b50505050565b6000610d55610d5083610d6d565b610c77565b9050919050565b6000601f19601f8301169050919050565b60008160001c9050919050565b610d8381610c93565b8114610d8e57600080fd5b50565b610d9a81610cbd565b8114610da557600080fd5b5056fe68747470733a2f2f6d696e2d6170692e63727970746f636f6d706172652e636f6d2f646174612f70726963656d756c746966756c6c3f6673796d733d455448267473796d733d555344a365627a7a72315820a9f8d9b410baf585be5b36e24d68a8ab651d0c36d5e3e4f37742ca9f35cfe2186c6578706572696d656e74616cf564736f6c63430005100040",
  "source": "// SPDX-License-Identifier: MIT\npragma solidity ^0.5.0;\n\npragma experimental ABIEncoderV2;\n\nimport './OracleContract.sol';\nimport './MockLinkToken.sol';\n\n// NOTE we're not using the real chainlink decentralized network,\n// but mocking it's functionality.\n\ncontract OracleClient {\n\n    // State variables are stored in \"storage\", which are persistent\n    // .. across function calls and even after contract destruction.\n    uint256[] public volume;\n    string private jobId;\n    uint256 private fee;\n\n    // Instance of the mock LinkToken contract\n    MockLinkToken public mockLinkToken;\n    OracleContract public oracleContract;\n    address public ocAddress;\n\n    struct Request {\n        string id;\n        string apiCall;\n        string path;\n        uint256 timesAmount;\n    }\n\n    Request public myRequest;\n\n    event RequestVolume(bytes32 indexed requestId, uint256[] volume);\n    event ClientTest(string apple);\n\n    constructor(address oracleContractAddress, address mockLinkTokenAddress) public \n    {\n        mockLinkToken = MockLinkToken(mockLinkTokenAddress);\n        oracleContract = OracleContract(oracleContractAddress);\n        ocAddress = oracleContractAddress;\n        jobId = \"0\";\n        fee = 1; // 0,1 * 10**18 (Varies by network and job)\n    }\n\n    function getData() public view returns (uint256[] memory) {\n        return volume;\n    }\n\n    /**\n     * Create a Chainlink request to retrieve API response, find the target\n     * data, then multiply by 1000000000000000000 (to remove decimal places from data).\n     */\n    function requestOracleData() public {\n\n        myRequest.id = jobId;\n        myRequest.apiCall = \"https://min-api.cryptocompare.com/data/pricemultifull?fsyms=ETH&tsyms=USD\";\n        myRequest.path = \"RAW.ETH.USD.VOLUME24HOUR\";\n        myRequest.timesAmount = 10 ** 18;\n\n        //emit ClientTest(\"call Mock Link contract\");\n\n        // SIMULATED NETWORK, follow this function\n        mockLinkToken.transferFromOracleClient(fee, myRequest, ocAddress);\n    }\n\n    function fulfill(bytes32 _requestId, uint256[] memory _volume) public {\n        volume = _volume;\n    }\n\n    /**\n     * Allow withdraw of Link tokens from the contract\n     */\n    // function withdrawLink() public onlyOwner {\n    //     LinkTokenInterface link = LinkTokenInterface(chainlinkTokenAddress());\n    //     require(\n    //         link.transfer(msg.sender, link.balanceOf(address(this))),\n    //         \"Unable to transfer\"\n    //     );\n    // }\n}\n",
  "sourcePath": "/Users/Nelson/Desktop/DEX-web-app/src/contracts/Oracle Related/OracleClient.sol",
  "compiler": {
    "name": "solc",
    "version": "0.5.16+commit.9c3226ce.Emscripten.clang"
  },
  "schemaVersion": "3.4.14",
  "updatedAt": "2023-06-25T01:25:29.636Z",
  "networkType": "ethereum",
  "devdoc": {
    "methods": {}
  },
  "userdoc": {
    "methods": {
      "requestOracleData()": {
        "notice": "Create a Chainlink request to retrieve API response, find the target data, then multiply by 1000000000000000000 (to remove decimal places from data)."
      }
    }
  }
}