{
  "contractName": "OracleContract",
  "abi": [
    {
      "anonymous": false,
      "inputs": [
        {
          "indexed": true,
          "internalType": "bytes32",
          "name": "requestId",
          "type": "bytes32"
        },
        {
          "indexed": false,
          "internalType": "string",
          "name": "apiEndpoint",
          "type": "string"
        },
        {
          "indexed": false,
          "internalType": "string",
          "name": "path",
          "type": "string"
        }
      ],
      "name": "OracleRequest",
      "type": "event"
    },
    {
      "anonymous": false,
      "inputs": [
        {
          "indexed": true,
          "internalType": "bytes32",
          "name": "requestId",
          "type": "bytes32"
        },
        {
          "indexed": false,
          "internalType": "uint256",
          "name": "result",
          "type": "uint256"
        }
      ],
      "name": "OracleResponse",
      "type": "event"
    },
    {
      "constant": false,
      "inputs": [
        {
          "internalType": "address",
          "name": "_sender",
          "type": "address"
        },
        {
          "internalType": "uint256",
          "name": "_amount",
          "type": "uint256"
        },
        {
          "components": [
            {
              "internalType": "string",
              "name": "id",
              "type": "string"
            },
            {
              "internalType": "string",
              "name": "apiCall",
              "type": "string"
            },
            {
              "internalType": "string",
              "name": "path",
              "type": "string"
            },
            {
              "internalType": "uint256",
              "name": "timesAmount",
              "type": "uint256"
            }
          ],
          "internalType": "struct OracleClient.Request",
          "name": "_data",
          "type": "tuple"
        }
      ],
      "name": "onTokenTransfer",
      "outputs": [],
      "payable": false,
      "stateMutability": "nonpayable",
      "type": "function"
    }
  ],
  "bytecode": "0x608060405234801561001057600080fd5b506106bf806100206000396000f3fe608060405234801561001057600080fd5b506004361061002b5760003560e01c80632b48921414610030575b600080fd5b61004a600480360361004591908101906104a4565b61004c565b005b60006100eb82806000018035600160200383360303811261006c57600080fd5b8083019250508135905060208201915067ffffffffffffffff81111561009157600080fd5b6001810236038213156100a357600080fd5b8080601f016020809104026020016040519081016040528093929190818152602001838380828437600081840152601f19601f82011690508083019250505050505050610243565b9050606082806020018035600160200383360303811261010a57600080fd5b8083019250508135905060208201915067ffffffffffffffff81111561012f57600080fd5b60018102360382131561014157600080fd5b8080601f016020809104026020016040519081016040528093929190818152602001838380828437600081840152601f19601f82011690508083019250505050505050905060608380604001803560016020038336030381126101a357600080fd5b8083019250508135905060208201915067ffffffffffffffff8111156101c857600080fd5b6001810236038213156101da57600080fd5b8080601f016020809104026020016040519081016040528093929190818152602001838380828437600081840152601f19601f82011690508083019250505050505050905060008460600135905061023a84610234610251565b896103ed565b50505050505050565b600060208201519050919050565b606080600d6040519080825280602002602001820160405280156102845781602001602082028038833980820191505090505b50905060438160008151811061029657fe5b602002602001018181525050604d816001815181106102b157fe5b6020026020010181815250506039816002815181106102cc57fe5b602002602001018181525050602f816003815181106102e757fe5b60200260200101818152505060258160048151811061030257fe5b602002602001018181525050603e8160058151811061031d57fe5b602002602001018181525050603d8160068151811061033857fe5b602002602001018181525050603f8160078151811061035357fe5b60200260200101818152505060418160088151811061036e57fe5b60200260200101818152505060428160098151811061038957fe5b602002602001018181525050604481600a815181106103a457fe5b602002602001018181525050604581600b815181106103bf57fe5b602002602001018181525050603d81600c815181106103da57fe5b6020026020010181815250508091505090565b8073ffffffffffffffffffffffffffffffffffffffff1663ec60640b84846040518363ffffffff1660e01b815260040161042892919061059f565b600060405180830381600087803b15801561044257600080fd5b505af1158015610456573d6000803e3d6000fd5b50505050505050565b60008135905061046e8161064e565b92915050565b60006080828403121561048657600080fd5b81905092915050565b60008135905061049e81610665565b92915050565b6000806000606084860312156104b957600080fd5b60006104c78682870161045f565b93505060206104d88682870161048f565b925050604084013567ffffffffffffffff8111156104f557600080fd5b61050186828701610474565b9150509250925092565b60006105178383610590565b60208301905092915050565b600061052e826105df565b61053881856105f7565b9350610543836105cf565b8060005b8381101561057457815161055b888261050b565b9750610566836105ea565b925050600181019050610547565b5085935050505092915050565b61058a8161061a565b82525050565b61059981610644565b82525050565b60006040820190506105b46000830185610581565b81810360208301526105c68184610523565b90509392505050565b6000819050602082019050919050565b600081519050919050565b6000602082019050919050565b600082825260208201905092915050565b600061061382610624565b9050919050565b6000819050919050565b600073ffffffffffffffffffffffffffffffffffffffff82169050919050565b6000819050919050565b61065781610608565b811461066257600080fd5b50565b61066e81610644565b811461067957600080fd5b5056fea365627a7a7231582090d1d283c2dec19f4359c25f98bb31dacc80cfe32cf6fe53366d423732741d546c6578706572696d656e74616cf564736f6c63430005100040",
  "source": "// SPDX-License-Identifier: MIT\npragma solidity ^0.5.0;\n\n// Don't use this in live deployments\npragma experimental ABIEncoderV2;\n\n// import \"./v0.8/ChainlinkClient.sol\";\nimport './OracleClient.sol';\n\n\ncontract OracleContract {\n\n    // Event emitted when a request is made\n    event OracleRequest(\n        bytes32 indexed requestId,\n        string apiEndpoint,\n        string path\n    );\n\n    // Event emitted when a request is fulfilled\n    event OracleResponse(\n        bytes32 indexed requestId,\n        uint256 result\n    );\n\n    // Store the API endpoint and path for the request\n    struct OracleData {\n        string apiEndpoint;\n        string path;\n    }\n\n    // Mapping of request IDs to OracleData\n    mapping(bytes32 => OracleData) private oracleDataMap;\n\n    // Mock response data\n    mapping(bytes32 => uint256) private mockResponseData;\n\n \n    function onTokenTransfer(\n        address _sender,\n        uint256 _amount,\n        OracleClient.Request calldata _data\n    ) external {\n\n        // Get the request ID from the data\n        bytes32 requestId = stringToBytes32(_data.id);\n\n        // Get the request details\n        string memory apiCall = _data.apiCall;\n        string memory path = _data.path;\n        uint256 timesAmount = _data.timesAmount;\n\n        // Instead of calling a real Oracle API, do getMockResponse()        \n        fulfillOracleRequest(requestId, getMockResponse(), _sender);\n    }\n\n    // Helper function to convert string to bytes32 uses assembly language below.\n    // Purpose: can now compare this string to other 32byte values.\n    // Also is good for hashing. So a \"Hello\" is turned into a 0x48656c6c6f hexa decimal value\n    function stringToBytes32(string memory source) private pure returns (bytes32 result) {\n        assembly {\n            result := mload(add(source, 32))\n        }\n    }\n\n    // Array's must sepcify their data location.\n    function getMockResponse() internal pure returns (uint256[] memory) {\n        \n        // Generate a mock response data\n        uint256[] memory myArray;\n        myArray = new uint256[](13);\n        myArray[0] = 67;\n        myArray[1] = 77;\n        myArray[2] = 57;\n        myArray[3] = 47;\n        myArray[4] = 37;\n        myArray[5] = 62;\n        myArray[6] = 61;\n        myArray[7] = 63;\n        myArray[8] = 65;\n        myArray[9] = 66;\n        myArray[10] = 68;\n        myArray[11] = 69;\n        myArray[12] = 61;      \n\n        return myArray;\n    }\n\n    // Fulfill the request and send the response back to OracleClient\n    function fulfillOracleRequest(\n        bytes32 _requestId,\n        uint256[] memory _result,\n        address _receiver_address\n    ) internal {\n        // Forward the response to the corresponding client contract\n        OracleClient(_receiver_address).fulfill(_requestId, _result);\n    }\n}\n",
  "sourcePath": "/Users/Nelson/Desktop/DEX-web-app/src/contracts/Oracle Related/OracleContract.sol",
  "compiler": {
    "name": "solc",
    "version": "0.5.16+commit.9c3226ce.Emscripten.clang"
  },
  "schemaVersion": "3.4.14",
  "updatedAt": "2023-06-22T18:30:59.341Z",
  "networkType": "ethereum",
  "devdoc": {
    "methods": {}
  },
  "userdoc": {
    "methods": {}
  }
}